{
  "contractName": "Pedido",
  "abi": [
    {
      "constant": true,
      "inputs": [
        {
          "name": "",
          "type": "uint256"
        }
      ],
      "name": "listaFornecedor",
      "outputs": [
        {
          "name": "idFornecedor",
          "type": "uint256"
        },
        {
          "name": "nomeFornecedor",
          "type": "string"
        },
        {
          "name": "emailFornecedor",
          "type": "string"
        },
        {
          "name": "tipoFornecedor",
          "type": "string"
        }
      ],
      "payable": false,
      "stateMutability": "view",
      "type": "function"
    },
    {
      "constant": true,
      "inputs": [
        {
          "name": "",
          "type": "uint256"
        }
      ],
      "name": "listaNF",
      "outputs": [
        {
          "name": "idNota",
          "type": "uint256"
        },
        {
          "name": "nomeItem",
          "type": "string"
        },
        {
          "name": "descricaoItem",
          "type": "string"
        },
        {
          "name": "quantidadeItem",
          "type": "uint256"
        },
        {
          "name": "valorUnitario",
          "type": "uint256"
        },
        {
          "name": "valorTotal",
          "type": "uint256"
        },
        {
          "name": "idPedido",
          "type": "uint256"
        },
        {
          "name": "origem",
          "type": "string"
        },
        {
          "name": "destino",
          "type": "string"
        },
        {
          "name": "tipoNotafiscal",
          "type": "string"
        }
      ],
      "payable": false,
      "stateMutability": "view",
      "type": "function"
    },
    {
      "constant": true,
      "inputs": [
        {
          "name": "",
          "type": "uint256"
        }
      ],
      "name": "notaFiscalRegistriesAccts",
      "outputs": [
        {
          "name": "",
          "type": "string"
        }
      ],
      "payable": false,
      "stateMutability": "view",
      "type": "function"
    },
    {
      "constant": true,
      "inputs": [
        {
          "name": "",
          "type": "uint256"
        }
      ],
      "name": "listaPedido",
      "outputs": [
        {
          "name": "idPedido",
          "type": "uint256"
        },
        {
          "name": "descricaoPedido",
          "type": "string"
        },
        {
          "components": [
            {
              "name": "idFornecedor",
              "type": "uint256"
            },
            {
              "name": "nomeFornecedor",
              "type": "string"
            },
            {
              "name": "emailFornecedor",
              "type": "string"
            },
            {
              "name": "tipoFornecedor",
              "type": "string"
            }
          ],
          "name": "fornecedor",
          "type": "tuple"
        },
        {
          "name": "nomeFornecedor",
          "type": "string"
        },
        {
          "name": "nomeSubfornecedor",
          "type": "string"
        },
        {
          "name": "idNotaFiscal",
          "type": "uint256"
        },
        {
          "name": "nomeItem",
          "type": "string"
        },
        {
          "name": "tipoPedido",
          "type": "string"
        }
      ],
      "payable": false,
      "stateMutability": "view",
      "type": "function"
    },
    {
      "constant": true,
      "inputs": [
        {
          "name": "",
          "type": "uint256"
        }
      ],
      "name": "fornecedorRegistriesAccts",
      "outputs": [
        {
          "name": "",
          "type": "string"
        }
      ],
      "payable": false,
      "stateMutability": "view",
      "type": "function"
    },
    {
      "constant": true,
      "inputs": [
        {
          "name": "",
          "type": "uint256"
        }
      ],
      "name": "listaItem",
      "outputs": [
        {
          "name": "idItem",
          "type": "uint256"
        },
        {
          "name": "nomeItem",
          "type": "string"
        },
        {
          "name": "descricaoItem",
          "type": "string"
        }
      ],
      "payable": false,
      "stateMutability": "view",
      "type": "function"
    },
    {
      "constant": true,
      "inputs": [
        {
          "name": "",
          "type": "uint256"
        }
      ],
      "name": "itemRegistriesAccts",
      "outputs": [
        {
          "name": "",
          "type": "string"
        }
      ],
      "payable": false,
      "stateMutability": "view",
      "type": "function"
    },
    {
      "constant": true,
      "inputs": [
        {
          "name": "",
          "type": "uint256"
        }
      ],
      "name": "pedidoRegistriesAccts",
      "outputs": [
        {
          "name": "",
          "type": "string"
        }
      ],
      "payable": false,
      "stateMutability": "view",
      "type": "function"
    },
    {
      "constant": false,
      "inputs": [
        {
          "name": "_firebaseId",
          "type": "string"
        },
        {
          "name": "_idPedido",
          "type": "uint256"
        },
        {
          "name": "_item",
          "type": "string"
        },
        {
          "name": "_descricaoPedido",
          "type": "string"
        },
        {
          "name": "_tipoPedido",
          "type": "string"
        },
        {
          "name": "_nomeFornecedor",
          "type": "string"
        }
      ],
      "name": "createPedido",
      "outputs": [
        {
          "name": "",
          "type": "bool"
        }
      ],
      "payable": false,
      "stateMutability": "nonpayable",
      "type": "function"
    },
    {
      "constant": false,
      "inputs": [
        {
          "name": "_firebaseID",
          "type": "string"
        },
        {
          "name": "_idFornecedor",
          "type": "uint256"
        },
        {
          "name": "_nomeFornecedor",
          "type": "string"
        },
        {
          "name": "_tipoFornecedor",
          "type": "string"
        },
        {
          "name": "_emailFornecedor",
          "type": "string"
        }
      ],
      "name": "createFornecedor",
      "outputs": [
        {
          "name": "",
          "type": "bool"
        }
      ],
      "payable": false,
      "stateMutability": "nonpayable",
      "type": "function"
    },
    {
      "constant": false,
      "inputs": [
        {
          "name": "_firebaseID",
          "type": "string"
        },
        {
          "name": "_idItem",
          "type": "uint256"
        },
        {
          "name": "_nomeItem",
          "type": "string"
        },
        {
          "name": "_descricaoItem",
          "type": "string"
        }
      ],
      "name": "createItem",
      "outputs": [
        {
          "name": "",
          "type": "bool"
        }
      ],
      "payable": false,
      "stateMutability": "nonpayable",
      "type": "function"
    },
    {
      "constant": false,
      "inputs": [
        {
          "name": "_firebaseID",
          "type": "string"
        },
        {
          "name": "_idNota",
          "type": "uint256"
        },
        {
          "name": "_idItem",
          "type": "uint256"
        },
        {
          "name": "_idPedido",
          "type": "uint256"
        },
        {
          "name": "_nomeItem",
          "type": "string"
        },
        {
          "name": "_tipoNota",
          "type": "string"
        },
        {
          "name": "_quantidadeItem",
          "type": "uint256"
        },
        {
          "name": "_valorUnitario",
          "type": "uint256"
        }
      ],
      "name": "createNotaFiscal",
      "outputs": [
        {
          "name": "",
          "type": "bool"
        }
      ],
      "payable": false,
      "stateMutability": "nonpayable",
      "type": "function"
    },
    {
      "constant": false,
      "inputs": [
        {
          "name": "_idNota",
          "type": "uint256"
        },
        {
          "name": "_idPedido",
          "type": "uint256"
        }
      ],
      "name": "addNotaToPedido",
      "outputs": [
        {
          "name": "",
          "type": "bool"
        }
      ],
      "payable": false,
      "stateMutability": "nonpayable",
      "type": "function"
    },
    {
      "constant": false,
      "inputs": [
        {
          "name": "_idNota",
          "type": "uint256"
        }
      ],
      "name": "consultaValorNF",
      "outputs": [
        {
          "name": "",
          "type": "uint256"
        }
      ],
      "payable": false,
      "stateMutability": "nonpayable",
      "type": "function"
    },
    {
      "constant": true,
      "inputs": [
        {
          "name": "_firebaseId",
          "type": "string"
        }
      ],
      "name": "lookUpIdFornecedor",
      "outputs": [
        {
          "name": "serialized",
          "type": "bytes"
        }
      ],
      "payable": false,
      "stateMutability": "view",
      "type": "function"
    }
  ],
  "bytecode": "0x608060405261459e806100136000396000f3fe608060405234801561001057600080fd5b50600436106100f55760003560e01c8063cd5baf2311610097578063dbb54f4c11610066578063dbb54f4c1461031f578063dd6b6ba91461034f578063e1c11db21461037f578063f6a88a38146103af576100f5565b8063cd5baf231461025d578063d5c094ac1461028d578063d8e301bd146102bd578063d98f72a7146102ed576100f5565b80636ccf2c76116100d35780636ccf2c7614610196578063780849a0146101c6578063a8203d0f146101f6578063bb011a6f14610226576100f5565b80631f75f8b0146100fa5780634eaf8de61461012d5780635091c2f614610166575b600080fd5b610114600480360361010f9190810190613f61565b6103df565b604051610124949392919061426b565b60405180910390f35b61014760048036036101429190810190613f61565b6105e4565b60405161015d9a999897969594939291906142c5565b60405180910390f35b610180600480360361017b9190810190613be4565b61093d565b60405161018d91906141ac565b60405180910390f35b6101b060048036036101ab9190810190613f61565b610a8b565b6040516101bd91906141e9565b60405180910390f35b6101e060048036036101db9190810190613ba3565b610b44565b6040516101ed91906141c7565b60405180910390f35b610210600480360361020b9190810190613e67565b610d6e565b60405161021d91906141ac565b60405180910390f35b610240600480360361023b9190810190613f61565b61109f565b604051610254989796959493929190614384565b60405180910390f35b61027760048036036102729190810190613f61565b6115e6565b604051610284919061420b565b60405180910390f35b6102a760048036036102a29190810190613d66565b611611565b6040516102b491906141ac565b60405180910390f35b6102d760048036036102d29190810190613f61565b612587565b6040516102e491906141e9565b60405180910390f35b61030760048036036103029190810190613f61565b612640565b60405161031693929190614226565b60405180910390f35b61033960048036036103349190810190613f61565b6127a7565b60405161034691906141e9565b60405180910390f35b61036960048036036103649190810190613f8a565b612860565b60405161037691906141ac565b60405180910390f35b61039960048036036103949190810190613f61565b612d14565b6040516103a691906141e9565b60405180910390f35b6103c960048036036103c49190810190613c8f565b612dcd565b6040516103d691906141ac565b60405180910390f35b600681815481106103ec57fe5b9060005260206000209060040201600091509050806000015490806001018054600181600116156101000203166002900480601f01602080910402602001604051908101604052809291908181526020018280546001816001161561010002031660029004801561049e5780601f106104735761010080835404028352916020019161049e565b820191906000526020600020905b81548152906001019060200180831161048157829003601f168201915b505050505090806002018054600181600116156101000203166002900480601f01602080910402602001604051908101604052809291908181526020018280546001816001161561010002031660029004801561053c5780601f106105115761010080835404028352916020019161053c565b820191906000526020600020905b81548152906001019060200180831161051f57829003601f168201915b505050505090806003018054600181600116156101000203166002900480601f0160208091040260200160405190810160405280929190818152602001828054600181600116156101000203166002900480156105da5780601f106105af576101008083540402835291602001916105da565b820191906000526020600020905b8154815290600101906020018083116105bd57829003601f168201915b5050505050905084565b600481815481106105f157fe5b90600052602060002090600a0201600091509050806000015490806001018054600181600116156101000203166002900480601f0160208091040260200160405190810160405280929190818152602001828054600181600116156101000203166002900480156106a35780601f10610678576101008083540402835291602001916106a3565b820191906000526020600020905b81548152906001019060200180831161068657829003601f168201915b505050505090806002018054600181600116156101000203166002900480601f0160208091040260200160405190810160405280929190818152602001828054600181600116156101000203166002900480156107415780601f1061071657610100808354040283529160200191610741565b820191906000526020600020905b81548152906001019060200180831161072457829003601f168201915b505050505090806003015490806004015490806005015490806006015490806007018054600181600116156101000203166002900480601f0160208091040260200160405190810160405280929190818152602001828054600181600116156101000203166002900480156107f75780601f106107cc576101008083540402835291602001916107f7565b820191906000526020600020905b8154815290600101906020018083116107da57829003601f168201915b505050505090806008018054600181600116156101000203166002900480601f0160208091040260200160405190810160405280929190818152602001828054600181600116156101000203166002900480156108955780601f1061086a57610100808354040283529160200191610895565b820191906000526020600020905b81548152906001019060200180831161087857829003601f168201915b505050505090806009018054600181600116156101000203166002900480601f0160208091040260200160405190810160405280929190818152602001828054600181600116156101000203166002900480156109335780601f1061090857610100808354040283529160200191610933565b820191906000526020600020905b81548152906001019060200180831161091657829003601f168201915b505050505090508a565b600080600a866040516109509190614180565b9081526020016040518091039020905084816000018190555083816001019080519060200190610981929190613756565b508281600201908051906020019061099a929190613756565b50600b8690806001815401808255809150509060018203906000526020600020016000909192909190915090805190602001906109d8929190613756565b50506007600a876040516109ec9190614180565b9081526020016040518091039020908060018154018082558091505090600182039060005260206000209060030201600090919290919091506000820154816000015560018201816001019080546001816001161561010002031660029004610a569291906137d6565b5060028201816002019080546001816001161561010002031660029004610a7e9291906137d6565b5050505050949350505050565b600f8181548110610a9857fe5b906000526020600020016000915090508054600181600116156101000203166002900480601f016020809104026020016040519081016040528092919081815260200182805460018160011615610100020316600290048015610b3c5780601f10610b1157610100808354040283529160200191610b3c565b820191906000526020600020905b815481529060010190602001808311610b1f57829003601f168201915b505050505081565b6060610d67600c83604051610b599190614180565b908152602001604051809103902060405180608001604052908160008201548152602001600182018054600181600116156101000203166002900480601f016020809104026020016040519081016040528092919081815260200182805460018160011615610100020316600290048015610c155780601f10610bea57610100808354040283529160200191610c15565b820191906000526020600020905b815481529060010190602001808311610bf857829003601f168201915b50505050508152602001600282018054600181600116156101000203166002900480601f016020809104026020016040519081016040528092919081815260200182805460018160011615610100020316600290048015610cb75780601f10610c8c57610100808354040283529160200191610cb7565b820191906000526020600020905b815481529060010190602001808311610c9a57829003601f168201915b50505050508152602001600382018054600181600116156101000203166002900480601f016020809104026020016040519081016040528092919081815260200182805460018160011615610100020316600290048015610d595780601f10610d2e57610100808354040283529160200191610d59565b820191906000526020600020905b815481529060010190602001808311610d3c57829003601f168201915b505050505081525050612f5b565b9050919050565b600080600e8a604051610d819190614180565b90815260200160405180910390209050888160000181905550610e5d60056001890381548110610dad57fe5b90600052602060002090600c0201600a018054600181600116156101000203166002900480601f016020809104026020016040519081016040528092919081815260200182805460018160011615610100020316600290048015610e525780601f10610e2757610100808354040283529160200191610e52565b820191906000526020600020905b815481529060010190602001808311610e3557829003601f168201915b505050505087613006565b1561108d5784816009019080519060200190610e7a929190613756565b50828160040181905550838160030181905550828402816005018190555086816006018190555060078881548110610eae57fe5b9060005260206000209060030201600201816002019080546001816001161561010002031660029004610ee292919061385d565b5085816001019080519060200190610efb929190613756565b50600f8a9080600181540180825580915050906001820390600052602060002001600090919290919091509080519060200190610f39929190613756565b50506004600e8b604051610f4d9190614180565b90815260200160405180910390209080600181540180825580915050906001820390600052602060002090600a0201600090919290919091506000820154816000015560018201816001019080546001816001161561010002031660029004610fb79291906137d6565b5060028201816002019080546001816001161561010002031660029004610fdf9291906137d6565b50600382015481600301556004820154816004015560058201548160050155600682015481600601556007820181600701908054600181600116156101000203166002900461102f9291906137d6565b50600882018160080190805460018160011615610100020316600290046110579291906137d6565b506009820181600901908054600181600116156101000203166002900461107f9291906137d6565b505050506001915050611093565b60019150505b98975050505050505050565b600581815481106110ac57fe5b90600052602060002090600c0201600091509050806000015490806001018054600181600116156101000203166002900480601f01602080910402602001604051908101604052809291908181526020018280546001816001161561010002031660029004801561115e5780601f106111335761010080835404028352916020019161115e565b820191906000526020600020905b81548152906001019060200180831161114157829003601f168201915b5050505050908060020160405180608001604052908160008201548152602001600182018054600181600116156101000203166002900480601f0160208091040260200160405190810160405280929190818152602001828054600181600116156101000203166002900480156112165780601f106111eb57610100808354040283529160200191611216565b820191906000526020600020905b8154815290600101906020018083116111f957829003601f168201915b50505050508152602001600282018054600181600116156101000203166002900480601f0160208091040260200160405190810160405280929190818152602001828054600181600116156101000203166002900480156112b85780601f1061128d576101008083540402835291602001916112b8565b820191906000526020600020905b81548152906001019060200180831161129b57829003601f168201915b50505050508152602001600382018054600181600116156101000203166002900480601f01602080910402602001604051908101604052809291908181526020018280546001816001161561010002031660029004801561135a5780601f1061132f5761010080835404028352916020019161135a565b820191906000526020600020905b81548152906001019060200180831161133d57829003601f168201915b50505050508152505090806007018054600181600116156101000203166002900480601f0160208091040260200160405190810160405280929190818152602001828054600181600116156101000203166002900480156113fc5780601f106113d1576101008083540402835291602001916113fc565b820191906000526020600020905b8154815290600101906020018083116113df57829003601f168201915b505050505090806008018054600181600116156101000203166002900480601f01602080910402602001604051908101604052809291908181526020018280546001816001161561010002031660029004801561149a5780601f1061146f5761010080835404028352916020019161149a565b820191906000526020600020905b81548152906001019060200180831161147d57829003601f168201915b50505050509080600901549080600a018054600181600116156101000203166002900480601f01602080910402602001604051908101604052809291908181526020018280546001816001161561010002031660029004801561153e5780601f106115135761010080835404028352916020019161153e565b820191906000526020600020905b81548152906001019060200180831161152157829003601f168201915b50505050509080600b018054600181600116156101000203166002900480601f0160208091040260200160405190810160405280929190818152602001828054600181600116156101000203166002900480156115dc5780601f106115b1576101008083540402835291602001916115dc565b820191906000526020600020905b8154815290600101906020018083116115bf57829003601f168201915b5050505050905088565b6000600460018303815481106115f857fe5b90600052602060002090600a0201600501549050919050565b6000806008886040516116249190614180565b908152602001604051809103902090506116736040518060400160405280600d81526020017f6d617465726961207072696d610000000000000000000000000000000000000081525085613006565b156119b05760008090505b6006805490508110156118aa5761174b6006828154811061169b57fe5b90600052602060002090600402016001018054600181600116156101000203166002900480601f0160208091040260200160405190810160405280929190818152602001828054600181600116156101000203166002900480156117405780601f1061171557610100808354040283529160200191611740565b820191906000526020600020905b81548152906001019060200180831161172357829003601f168201915b505050505085613006565b1561189d576118456006828154811061176057fe5b90600052602060002090600402016003018054600181600116156101000203166002900480601f0160208091040260200160405190810160405280929190818152602001828054600181600116156101000203166002900480156118055780601f106117da57610100808354040283529160200191611805565b820191906000526020600020905b8154815290600101906020018083116117e857829003601f168201915b50505050506040518060400160405280600a81526020017f666162726963616e746500000000000000000000000000000000000000000000815250613006565b15611891576006818154811061185757fe5b906000526020600020906004020160010182600701908054600181600116156101000203166002900461188b92919061385d565b5061189c565b60009250505061257d565b5b808060010191505061167e565b5060008090505b6007805490508110156119aa5761197e600782815481106118ce57fe5b90600052602060002090600302016001018054600181600116156101000203166002900480601f0160208091040260200160405190810160405280929190818152602001828054600181600116156101000203166002900480156119735780601f1061194857610100808354040283529160200191611973565b820191906000526020600020905b81548152906001019060200180831161195657829003601f168201915b505050505088613006565b1561199d578682600a01908051906020019061199b929190613756565b505b80806001019150506118b1565b50612330565b6119ef6040518060400160405280600881526020017f70726f647563616f00000000000000000000000000000000000000000000000081525085613006565b15611d295760005b600680549050811015611c2357611ac460068281548110611a1457fe5b90600052602060002090600402016001018054600181600116156101000203166002900480601f016020809104026020016040519081016040528092919081815260200182805460018160011615610100020316600290048015611ab95780601f10611a8e57610100808354040283529160200191611ab9565b820191906000526020600020905b815481529060010190602001808311611a9c57829003601f168201915b505050505085613006565b15611c1657611bbe60068281548110611ad957fe5b90600052602060002090600402016003018054600181600116156101000203166002900480601f016020809104026020016040519081016040528092919081815260200182805460018160011615610100020316600290048015611b7e5780601f10611b5357610100808354040283529160200191611b7e565b820191906000526020600020905b815481529060010190602001808311611b6157829003601f168201915b50505050506040518060400160405280600d81526020017f737562666f726e656365646f7200000000000000000000000000000000000000815250613006565b15611c0a5760068181548110611bd057fe5b9060005260206000209060040201600101826007019080546001816001161561010002031660029004611c0492919061385d565b50611c15565b60009250505061257d565b5b80806001019150506119f7565b5060008090505b600780549050811015611d2357611cf760078281548110611c4757fe5b90600052602060002090600302016001018054600181600116156101000203166002900480601f016020809104026020016040519081016040528092919081815260200182805460018160011615610100020316600290048015611cec5780601f10611cc157610100808354040283529160200191611cec565b820191906000526020600020905b815481529060010190602001808311611ccf57829003601f168201915b505050505088613006565b15611d16578682600a019080519060200190611d14929190613756565b505b8080600101915050611c2a565b5061232f565b611d686040518060400160405280600881526020017f636f6e666563616f00000000000000000000000000000000000000000000000081525085613006565b1561232e5760005b600680549050811015611ffe57611e3d60068281548110611d8d57fe5b90600052602060002090600402016001018054600181600116156101000203166002900480601f016020809104026020016040519081016040528092919081815260200182805460018160011615610100020316600290048015611e325780601f10611e0757610100808354040283529160200191611e32565b820191906000526020600020905b815481529060010190602001808311611e1557829003601f168201915b505050505085613006565b15611ff157611f3760068281548110611e5257fe5b90600052602060002090600402016003018054600181600116156101000203166002900480601f016020809104026020016040519081016040528092919081815260200182805460018160011615610100020316600290048015611ef75780601f10611ecc57610100808354040283529160200191611ef7565b820191906000526020600020905b815481529060010190602001808311611eda57829003601f168201915b50505050506040518060400160405280600a81526020017f666f726e656365646f7200000000000000000000000000000000000000000000815250613006565b15611fe55760068181548110611f4957fe5b9060005260206000209060040201826002016000820154816000015560018201816001019080546001816001161561010002031660029004611f8c9291906137d6565b5060028201816002019080546001816001161561010002031660029004611fb49291906137d6565b5060038201816003019080546001816001161561010002031660029004611fdc9291906137d6565b50905050611ff0565b60009250505061257d565b5b8080600101915050611d70565b5060008090505b6007805490508110156120fe576120d26007828154811061202257fe5b90600052602060002090600302016001018054600181600116156101000203166002900480601f0160208091040260200160405190810160405280929190818152602001828054600181600116156101000203166002900480156120c75780601f1061209c576101008083540402835291602001916120c7565b820191906000526020600020905b8154815290600101906020018083116120aa57829003601f168201915b505050505088613006565b156120f1578682600a0190805190602001906120ef929190613756565b505b8080600101915050612005565b5084816001019080519060200190612117929190613756565b50868160000181905550600988908060018154018082558091505090600182039060005260206000200160009091929091909150908051906020019061215e929190613756565b505060056008896040516121729190614180565b90815260200160405180910390209080600181540180825580915050906001820390600052602060002090600c02016000909192909190915060008201548160000155600182018160010190805460018160011615610100020316600290046121dc9291906137d6565b50600282018160020160008201548160000155600182018160010190805460018160011615610100020316600290046122169291906137d6565b506002820181600201908054600181600116156101000203166002900461223e9291906137d6565b50600382018160030190805460018160011615610100020316600290046122669291906137d6565b505050600682018160060190805461227f9291906138e4565b50600782018160070190805460018160011615610100020316600290046122a79291906137d6565b50600882018160080190805460018160011615610100020316600290046122cf9291906137d6565b5060098201548160090155600a820181600a0190805460018160011615610100020316600290046123019291906137d6565b50600b820181600b0190805460018160011615610100020316600290046123299291906137d6565b505050505b5b5b84816001019080519060200190612348929190613756565b508681600001819055508381600b01908051906020019061236a929190613756565b5060098890806001815401808255809150509060018203906000526020600020016000909192909190915090805190602001906123a8929190613756565b505060056008896040516123bc9190614180565b90815260200160405180910390209080600181540180825580915050906001820390600052602060002090600c02016000909192909190915060008201548160000155600182018160010190805460018160011615610100020316600290046124269291906137d6565b50600282018160020160008201548160000155600182018160010190805460018160011615610100020316600290046124609291906137d6565b50600282018160020190805460018160011615610100020316600290046124889291906137d6565b50600382018160030190805460018160011615610100020316600290046124b09291906137d6565b50505060068201816006019080546124c99291906138e4565b50600782018160070190805460018160011615610100020316600290046124f19291906137d6565b50600882018160080190805460018160011615610100020316600290046125199291906137d6565b5060098201548160090155600a820181600a01908054600181600116156101000203166002900461254b9291906137d6565b50600b820181600b0190805460018160011615610100020316600290046125739291906137d6565b5050505060019150505b9695505050505050565b600d818154811061259457fe5b906000526020600020016000915090508054600181600116156101000203166002900480601f0160208091040260200160405190810160405280929190818152602001828054600181600116156101000203166002900480156126385780601f1061260d57610100808354040283529160200191612638565b820191906000526020600020905b81548152906001019060200180831161261b57829003601f168201915b505050505081565b6007818154811061264d57fe5b9060005260206000209060030201600091509050806000015490806001018054600181600116156101000203166002900480601f0160208091040260200160405190810160405280929190818152602001828054600181600116156101000203166002900480156126ff5780601f106126d4576101008083540402835291602001916126ff565b820191906000526020600020905b8154815290600101906020018083116126e257829003601f168201915b505050505090806002018054600181600116156101000203166002900480601f01602080910402602001604051908101604052809291908181526020018280546001816001161561010002031660029004801561279d5780601f106127725761010080835404028352916020019161279d565b820191906000526020600020905b81548152906001019060200180831161278057829003601f168201915b5050505050905083565b600b81815481106127b457fe5b906000526020600020016000915090508054600181600116156101000203166002900480601f0160208091040260200160405190810160405280929190818152602001828054600181600116156101000203166002900480156128585780601f1061282d57610100808354040283529160200191612858565b820191906000526020600020905b81548152906001019060200180831161283b57829003601f168201915b505050505081565b600061286b8261302c565b156129ef5761287983613143565b156129e6576005600183038154811061288e57fe5b90600052602060002090600c0201600601600460018503815481106128af57fe5b90600052602060002090600a02019080600181540180825580915050906001820390600052602060002090600a02016000909192909190915060008201548160000155600182018160010190805460018160011615610100020316600290046129199291906137d6565b50600282018160020190805460018160011615610100020316600290046129419291906137d6565b5060038201548160030155600482015481600401556005820154816005015560068201548160060155600782018160070190805460018160011615610100020316600290046129919291906137d6565b50600882018160080190805460018160011615610100020316600290046129b99291906137d6565b50600982018160090190805460018160011615610100020316600290046129e19291906137d6565b505050505b60019050612d0e565b6129f88261325a565b15612b7c57612a0683613371565b15612b735760056001830381548110612a1b57fe5b90600052602060002090600c020160060160046001850381548110612a3c57fe5b90600052602060002090600a02019080600181540180825580915050906001820390600052602060002090600a0201600090919290919091506000820154816000015560018201816001019080546001816001161561010002031660029004612aa69291906137d6565b5060028201816002019080546001816001161561010002031660029004612ace9291906137d6565b506003820154816003015560048201548160040155600582015481600501556006820154816006015560078201816007019080546001816001161561010002031660029004612b1e9291906137d6565b5060088201816008019080546001816001161561010002031660029004612b469291906137d6565b5060098201816009019080546001816001161561010002031660029004612b6e9291906137d6565b505050505b60019050612d0e565b612b8582613488565b15612d0957612b938361359f565b15612d005760056001830381548110612ba857fe5b90600052602060002090600c020160060160046001850381548110612bc957fe5b90600052602060002090600a02019080600181540180825580915050906001820390600052602060002090600a0201600090919290919091506000820154816000015560018201816001019080546001816001161561010002031660029004612c339291906137d6565b5060028201816002019080546001816001161561010002031660029004612c5b9291906137d6565b506003820154816003015560048201548160040155600582015481600501556006820154816006015560078201816007019080546001816001161561010002031660029004612cab9291906137d6565b5060088201816008019080546001816001161561010002031660029004612cd39291906137d6565b5060098201816009019080546001816001161561010002031660029004612cfb9291906137d6565b505050505b60019050612d0e565b600090505b92915050565b60098181548110612d2157fe5b906000526020600020016000915090508054600181600116156101000203166002900480601f016020809104026020016040519081016040528092919081815260200182805460018160011615610100020316600290048015612dc55780601f10612d9a57610100808354040283529160200191612dc5565b820191906000526020600020905b815481529060010190602001808311612da857829003601f168201915b505050505081565b600080600c604051612dde90614197565b9081526020016040518091039020905085816000018190555084816001019080519060200190612e0f929190613756565b5082816002019080519060200190612e28929190613756565b5083816003019080519060200190612e41929190613756565b50600d879080600181540180825580915050906001820390600052602060002001600090919290919091509080519060200190612e7f929190613756565b50506006600c88604051612e939190614180565b9081526020016040518091039020908060018154018082558091505090600182039060005260206000209060040201600090919290919091506000820154816000015560018201816001019080546001816001161561010002031660029004612efd9291906137d6565b5060028201816002019080546001816001161561010002031660029004612f259291906137d6565b5060038201816003019080546001816001161561010002031660029004612f4d9291906137d6565b505050505095945050505050565b6060600061020090506060816040519080825280601f01601f191660200182016040528015612f995781602001600182028038833980820191505090505b509050612fab828560200151836136b6565b612fb88460200151613717565b82039150612fcb828560400151836136b6565b612fd88460400151613717565b82039150612feb828560600151836136b6565b612ff88460600151613717565b820391508092505050919050565b600080838051906020012090506000838051906020012090508082149250505092915050565b6000806131276005600185038154811061304257fe5b90600052602060002090600c0201600b018054600181600116156101000203166002900480601f0160208091040260200160405190810160405280929190818152602001828054600181600116156101000203166002900480156130e75780601f106130bc576101008083540402835291602001916130e7565b820191906000526020600020905b8154815290600101906020018083116130ca57829003601f168201915b50505050506040518060400160405280600d81526020017f6d617465726961207072696d6100000000000000000000000000000000000000815250613006565b15613135576001905061313a565b600090505b80915050919050565b60008061323e6004600185038154811061315957fe5b90600052602060002090600a02016009018054600181600116156101000203166002900480601f0160208091040260200160405190810160405280929190818152602001828054600181600116156101000203166002900480156131fe5780601f106131d3576101008083540402835291602001916131fe565b820191906000526020600020905b8154815290600101906020018083116131e157829003601f168201915b50505050506040518060400160405280600d81526020017f6d617465726961207072696d6100000000000000000000000000000000000000815250613006565b1561324c5760019050613251565b600090505b80915050919050565b6000806133556005600185038154811061327057fe5b90600052602060002090600c0201600b018054600181600116156101000203166002900480601f0160208091040260200160405190810160405280929190818152602001828054600181600116156101000203166002900480156133155780601f106132ea57610100808354040283529160200191613315565b820191906000526020600020905b8154815290600101906020018083116132f857829003601f168201915b50505050506040518060400160405280600881526020017f70726f647563616f000000000000000000000000000000000000000000000000815250613006565b156133635760019050613368565b600090505b80915050919050565b60008061346c6004600185038154811061338757fe5b90600052602060002090600a02016009018054600181600116156101000203166002900480601f01602080910402602001604051908101604052809291908181526020018280546001816001161561010002031660029004801561342c5780601f106134015761010080835404028352916020019161342c565b820191906000526020600020905b81548152906001019060200180831161340f57829003601f168201915b50505050506040518060400160405280600881526020017f70726f647563616f000000000000000000000000000000000000000000000000815250613006565b1561347a576001905061347f565b600090505b80915050919050565b6000806135836005600185038154811061349e57fe5b90600052602060002090600c0201600b018054600181600116156101000203166002900480601f0160208091040260200160405190810160405280929190818152602001828054600181600116156101000203166002900480156135435780601f1061351857610100808354040283529160200191613543565b820191906000526020600020905b81548152906001019060200180831161352657829003601f168201915b50505050506040518060400160405280600881526020017f636f6e666563616f000000000000000000000000000000000000000000000000815250613006565b156135915760019050613596565b600090505b80915050919050565b60008061369a600460018503815481106135b557fe5b90600052602060002090600a02016009018054600181600116156101000203166002900480601f01602080910402602001604051908101604052809291908181526020018280546001816001161561010002031660029004801561365a5780601f1061362f5761010080835404028352916020019161365a565b820191906000526020600020905b81548152906001019060200180831161363d57829003601f168201915b50505050506040518060400160405280600681526020017f636f6d7072610000000000000000000000000000000000000000000000000000815250613006565b156136a857600190506136ad565b600090505b80915050919050565b600060208351816136c357fe5b049050600060208451816136d357fe5b0611156136e35780806001019150505b60018101905060005b818110156137105760208102840151858401526020850394506001810190506136ec565b5050505050565b6000602082518161372457fe5b0490506000602083518161373457fe5b06146137435780806001019150505b8080600101915050602081029050919050565b828054600181600116156101000203166002900490600052602060002090601f016020900481019282601f1061379757805160ff19168380011785556137c5565b828001600101855582156137c5579182015b828111156137c45782518255916020019190600101906137a9565b5b5090506137d29190613a36565b5090565b828054600181600116156101000203166002900490600052602060002090601f016020900481019282601f1061380f578054855561384c565b8280016001018555821561384c57600052602060002091601f016020900482015b8281111561384b578254825591600101919060010190613830565b5b5090506138599190613a36565b5090565b828054600181600116156101000203166002900490600052602060002090601f016020900481019282601f1061389657805485556138d3565b828001600101855582156138d357600052602060002091601f016020900482015b828111156138d25782548255916001019190600101906138b7565b5b5090506138e09190613a36565b5090565b82805482825590600052602060002090600a028101928215613a2557600052602060002091600a0282015b82811115613a24578282600082015481600001556001820181600101908054600181600116156101000203166002900461394a9291906137d6565b50600282018160020190805460018160011615610100020316600290046139729291906137d6565b5060038201548160030155600482015481600401556005820154816005015560068201548160060155600782018160070190805460018160011615610100020316600290046139c29291906137d6565b50600882018160080190805460018160011615610100020316600290046139ea9291906137d6565b5060098201816009019080546001816001161561010002031660029004613a129291906137d6565b50505091600a019190600a019061390f565b5b509050613a329190613a5b565b5090565b613a5891905b80821115613a54576000816000905550600101613a3c565b5090565b90565b613aef91905b80821115613aeb57600080820160009055600182016000613a829190613af2565b600282016000613a929190613af2565b6003820160009055600482016000905560058201600090556006820160009055600782016000613ac29190613af2565b600882016000613ad29190613af2565b600982016000613ae29190613af2565b50600a01613a61565b5090565b90565b50805460018160011615610100020316600290046000825580601f10613b185750613b37565b601f016020900490600052602060002090810190613b369190613a36565b5b50565b600082601f830112613b4b57600080fd5b8135613b5e613b5982614459565b61442c565b91508082526020830160208301858383011115613b7a57600080fd5b613b858382846144fa565b50505092915050565b600081359050613b9d8161454d565b92915050565b600060208284031215613bb557600080fd5b600082013567ffffffffffffffff811115613bcf57600080fd5b613bdb84828501613b3a565b91505092915050565b60008060008060808587031215613bfa57600080fd5b600085013567ffffffffffffffff811115613c1457600080fd5b613c2087828801613b3a565b9450506020613c3187828801613b8e565b935050604085013567ffffffffffffffff811115613c4e57600080fd5b613c5a87828801613b3a565b925050606085013567ffffffffffffffff811115613c7757600080fd5b613c8387828801613b3a565b91505092959194509250565b600080600080600060a08688031215613ca757600080fd5b600086013567ffffffffffffffff811115613cc157600080fd5b613ccd88828901613b3a565b9550506020613cde88828901613b8e565b945050604086013567ffffffffffffffff811115613cfb57600080fd5b613d0788828901613b3a565b935050606086013567ffffffffffffffff811115613d2457600080fd5b613d3088828901613b3a565b925050608086013567ffffffffffffffff811115613d4d57600080fd5b613d5988828901613b3a565b9150509295509295909350565b60008060008060008060c08789031215613d7f57600080fd5b600087013567ffffffffffffffff811115613d9957600080fd5b613da589828a01613b3a565b9650506020613db689828a01613b8e565b955050604087013567ffffffffffffffff811115613dd357600080fd5b613ddf89828a01613b3a565b945050606087013567ffffffffffffffff811115613dfc57600080fd5b613e0889828a01613b3a565b935050608087013567ffffffffffffffff811115613e2557600080fd5b613e3189828a01613b3a565b92505060a087013567ffffffffffffffff811115613e4e57600080fd5b613e5a89828a01613b3a565b9150509295509295509295565b600080600080600080600080610100898b031215613e8457600080fd5b600089013567ffffffffffffffff811115613e9e57600080fd5b613eaa8b828c01613b3a565b9850506020613ebb8b828c01613b8e565b9750506040613ecc8b828c01613b8e565b9650506060613edd8b828c01613b8e565b955050608089013567ffffffffffffffff811115613efa57600080fd5b613f068b828c01613b3a565b94505060a089013567ffffffffffffffff811115613f2357600080fd5b613f2f8b828c01613b3a565b93505060c0613f408b828c01613b8e565b92505060e0613f518b828c01613b8e565b9150509295985092959890939650565b600060208284031215613f7357600080fd5b6000613f8184828501613b8e565b91505092915050565b60008060408385031215613f9d57600080fd5b6000613fab85828601613b8e565b9250506020613fbc85828601613b8e565b9150509250929050565b613fcf816144e4565b82525050565b6000613fe082614485565b613fea81856144a6565b9350613ffa818560208601614509565b6140038161453c565b840191505092915050565b60006140198261449b565b61402381856144d9565b9350614033818560208601614509565b80840191505092915050565b600061404a82614490565b61405481856144b7565b9350614064818560208601614509565b61406d8161453c565b840191505092915050565b600061408382614490565b61408d81856144c8565b935061409d818560208601614509565b6140a68161453c565b840191505092915050565b60006140be6001836144d9565b91507f31000000000000000000000000000000000000000000000000000000000000006000830152600182019050919050565b60006080830160008301516141096000860182614162565b5060208301518482036020860152614121828261403f565b9150506040830151848203604086015261413b828261403f565b91505060608301518482036060860152614155828261403f565b9150508091505092915050565b61416b816144f0565b82525050565b61417a816144f0565b82525050565b600061418c828461400e565b915081905092915050565b60006141a2826140b1565b9150819050919050565b60006020820190506141c16000830184613fc6565b92915050565b600060208201905081810360008301526141e18184613fd5565b905092915050565b600060208201905081810360008301526142038184614078565b905092915050565b60006020820190506142206000830184614171565b92915050565b600060608201905061423b6000830186614171565b818103602083015261424d8185614078565b905081810360408301526142618184614078565b9050949350505050565b60006080820190506142806000830187614171565b81810360208301526142928186614078565b905081810360408301526142a68185614078565b905081810360608301526142ba8184614078565b905095945050505050565b6000610140820190506142db600083018d614171565b81810360208301526142ed818c614078565b90508181036040830152614301818b614078565b9050614310606083018a614171565b61431d6080830189614171565b61432a60a0830188614171565b61433760c0830187614171565b81810360e08301526143498186614078565b905081810361010083015261435e8185614078565b90508181036101208301526143738184614078565b90509b9a5050505050505050505050565b60006101008201905061439a600083018b614171565b81810360208301526143ac818a614078565b905081810360408301526143c081896140f1565b905081810360608301526143d48188614078565b905081810360808301526143e88187614078565b90506143f760a0830186614171565b81810360c08301526144098185614078565b905081810360e083015261441d8184614078565b90509998505050505050505050565b6000604051905081810181811067ffffffffffffffff8211171561444f57600080fd5b8060405250919050565b600067ffffffffffffffff82111561447057600080fd5b601f19601f8301169050602081019050919050565b600081519050919050565b600081519050919050565b600081519050919050565b600082825260208201905092915050565b600082825260208201905092915050565b600082825260208201905092915050565b600081905092915050565b60008115159050919050565b6000819050919050565b82818337600083830152505050565b60005b8381101561452757808201518184015260208101905061450c565b83811115614536576000848401525b50505050565b6000601f19601f8301169050919050565b614556816144f0565b811461456157600080fd5b5056fea265627a7a723058202b3a88add79ddfcea45b97c94e6c52b2338d878751c28a3997dd1a9896022ec06c6578706572696d656e74616cf50037",
  "source": "pragma solidity ^0.5.0;\r\npragma experimental ABIEncoderV2;\r\n\r\nimport \"./Parse.sol\";\r\n\r\ncontract StandardInterface {\r\n    function lookUpId(string memory _firebaseId) public view returns(bytes memory serialized) {}\r\n}\r\n\r\ncontract Pedido is Parse {\r\n\r\n\taddress pedidoAddress;\r\n\taddress notaFiscaladdress;\r\n\taddress itemAddress;\r\n\taddress fornecedorAddress;\r\n    NotaFiscal[] public listaNF;\r\n    Pedido[] public listaPedido;\r\n\tFornecedor[] public listaFornecedor;\r\n    Item[] public listaItem;\r\n\r\n    struct Fornecedor{\r\n\t\tuint idFornecedor;\r\n\t\tstring nomeFornecedor;\r\n\t\tstring emailFornecedor;\r\n\t\tstring tipoFornecedor;\r\n\t}\r\n\r\n\tstruct NotaFiscal {\r\n\t\tuint idNota;\r\n\t\tstring nomeItem;\r\n\t\tstring descricaoItem;\r\n\t\tuint quantidadeItem;\r\n\t\tuint valorUnitario;\r\n\t\tuint valorTotal;\r\n\t\tuint idPedido;\r\n\t\tstring origem;\r\n\t\tstring destino;\r\n\t\tstring tipoNotafiscal;\r\n\t}\r\n\r\n\tstruct Pedido{\r\n\t\tuint idPedido;\r\n\t\tstring  descricaoPedido;\r\n\t\tFornecedor fornecedor;\r\n\t\tNotaFiscal[] listaNFPedido;\r\n\t\tstring nomeFornecedor;\r\n\t\tstring nomeSubfornecedor;\r\n\t\tuint idNotaFiscal;\r\n\t\tstring nomeItem;\r\n\t\tstring tipoPedido;\r\n\t}\r\n\r\n\tstruct Item{\r\n\t\tuint idItem;\r\n\t\tstring nomeItem;\r\n\t\tstring descricaoItem;\r\n\t}\r\n\r\n\tmapping(string => Pedido) pedidoRegistries;\r\n    string[] public pedidoRegistriesAccts;\r\n\r\n\tmapping(string => Item) itemRegistries;\r\n    string[] public itemRegistriesAccts;\r\n\r\n\tmapping(string => Fornecedor) fornecedorRegistries;\r\n    string[] public fornecedorRegistriesAccts;\r\n\r\n\tmapping(string => NotaFiscal) notaFsicalRegistries;\r\n\tstring[] public notaFiscalRegistriesAccts;\r\n\r\n\t//Varejista\r\n\t// metodo para criao de um pedido para fabricao de roupa\r\n\tfunction createPedido (\r\n\t\tstring memory _firebaseId,\r\n\t\tuint _idPedido,\r\n\t\tstring memory _item,\r\n\t\tstring memory _descricaoPedido,\r\n\t\tstring memory _tipoPedido,\r\n\t\tstring memory _nomeFornecedor\r\n\t\t) public returns (bool) {\r\n\r\n\t\t\tPedido storage registryPedido = pedidoRegistries[_firebaseId];\r\n\t\t\t//VALIDA SE O TIPO DE PEDIDO E MATERIA PRIMA\r\n\t\t\tif(compareStrings(\"materia prima\",_tipoPedido)){\r\n\t\t\t\t//SE FOR, VERIFICAR SE O FORNECEDOR  O FABRICANTE\r\n\t\t\t\tfor(uint ip1=0; ip1 < listaFornecedor.length; ip1++){\r\n\t\t\t\t\tif(compareStrings(listaFornecedor[ip1].nomeFornecedor, _nomeFornecedor)){\r\n\t\t\t\t\t\tif(compareStrings(listaFornecedor[ip1].tipoFornecedor, \"fabricante\")){\r\n\t\t\t\t\t\t\tregistryPedido.nomeFornecedor = listaFornecedor[ip1].nomeFornecedor;\r\n\t\t\t\t\t\t}\r\n\t\t\t\t\t\telse return false;\r\n\t\t\t\t\t}\r\n\t\t\t\t}\r\n\t\t\t\t//VALIDA SE O ITEM JA ESTA CADASTRADO\r\n\t\t\t\tfor(uint ip2=0;ip2<listaItem.length;ip2++){\r\n\t\t\t\t\tif(compareStrings(listaItem[ip2].nomeItem, _item)){\r\n\t\t\t\t\t\tregistryPedido.nomeItem = _item;\r\n\t\t\t\t\t}\r\n\t\t\t\t}\r\n\t\t\t}\r\n\r\n\t\t\t//VALIDA SE O TIPO DE PEDIDO E PRODUCAO\r\n\t\t\telse if(compareStrings(\"producao\",_tipoPedido)){\r\n\t\t\t\t//SE FOR, VERIFICAR SE O FORNECEDOR  O SUBFORNECEDOR\r\n\t\t\t\tfor(uint ip3; ip3 < listaFornecedor.length; ip3++){\r\n\t\t\t\t\tif(compareStrings(listaFornecedor[ip3].nomeFornecedor, _nomeFornecedor)){\r\n\t\t\t\t\t\tif(compareStrings(listaFornecedor[ip3].tipoFornecedor, \"subfornecedor\")){\r\n\t\t\t\t\t\t\tregistryPedido.nomeFornecedor = listaFornecedor[ip3].nomeFornecedor;\r\n\t\t\t\t\t\t}\r\n\t\t\t\t\t\telse return false;\r\n\t\t\t\t\t}\r\n\t\t\t\t}\r\n\t\t\t\t//VALIDA SE O ITEM JA ESTA CADASTRADO\r\n\t\t\t\tfor(uint ip4=0;ip4<listaItem.length;ip4++){\r\n\t\t\t\t\tif(compareStrings(listaItem[ip4].nomeItem, _item)){\r\n\t\t\t\t\t\tregistryPedido.nomeItem = _item;\r\n\t\t\t\t\t}\r\n\t\t\t\t}\r\n\t\t\t}\r\n\r\n\t\t\t//VALIDA SE O TIPO DE PEDIDO E DE CONFECCAO\r\n\t\t\telse if(compareStrings(\"confecao\",_tipoPedido)){\r\n\t\t\t\t//SE FOR, VERIFICAR SE O FORNECEDOR  O FORNECEDOR\r\n\t\t\t\tfor(uint ip5; ip5 < listaFornecedor.length; ip5++){\r\n\t\t\t\t\tif(compareStrings(listaFornecedor[ip5].nomeFornecedor, _nomeFornecedor)){\r\n\t\t\t\t\t\tif(compareStrings(listaFornecedor[ip5].tipoFornecedor, \"fornecedor\")){\r\n\t\t\t\t\t\t\tregistryPedido.fornecedor = listaFornecedor[ip5];\r\n\t\t\t\t\t\t}\r\n\t\t\t\t\t\telse return false;\r\n\t\t\t\t\t}\r\n\t\t\t\t}\r\n\t\t\t\t//VALIDA SE O ITEM JA ESTA CADASTRADO\r\n\t\t\t\tfor(uint ip6=0;ip6<listaItem.length;ip6++){\r\n\t\t\t\t\tif(compareStrings(listaItem[ip6].nomeItem, _item)){\r\n\t\t\t\t\t\tregistryPedido.nomeItem = _item;\r\n\t\t\t\t\t}\r\n\t\t\t\t}\r\n\t\t\t\t//CADASTRA O RESTANTE DOS DADOS DE PEDIDO\r\n\t\t\t\tregistryPedido.descricaoPedido = _descricaoPedido;\r\n\t\t\t\tregistryPedido.idPedido = _idPedido;\r\n\t\t\t\tpedidoRegistriesAccts.push(_firebaseId);\r\n\t\t\t\tlistaPedido.push(pedidoRegistries[_firebaseId]);\r\n\t\t\t}\r\n\r\n\t\t\t//CADASTRA O RESTANTE DOS DADOS DE PEDIDO\r\n\t\t\t\tregistryPedido.descricaoPedido = _descricaoPedido;\r\n\t\t\t\tregistryPedido.idPedido = _idPedido;\r\n\t\t\t\tregistryPedido.tipoPedido = _tipoPedido;\r\n\t\t\t\tpedidoRegistriesAccts.push(_firebaseId);\r\n\t\t\t\tlistaPedido.push(pedidoRegistries[_firebaseId]);\r\n\r\n\t\treturn true;\r\n\t}\r\n\r\n\t//Varejista\r\n\t//metodo para cadastro de Fonrnecedor\r\n\tfunction createFornecedor (\r\n\t\tstring memory _firebaseID,\r\n\t\tuint _idFornecedor,\r\n\t\tstring memory _nomeFornecedor,\r\n\t\tstring memory _tipoFornecedor,\r\n\t\tstring memory _emailFornecedor) public returns (bool){\r\n\r\n\t\t\tFornecedor storage registryFornecedor = fornecedorRegistries[\"1\"];\r\n\t\t\tregistryFornecedor.idFornecedor = _idFornecedor;\r\n\t\t    registryFornecedor.nomeFornecedor = _nomeFornecedor;\r\n\t\t\tregistryFornecedor.emailFornecedor = _emailFornecedor;\r\n\t\t\tregistryFornecedor.tipoFornecedor = _tipoFornecedor;\r\n\t\t\tfornecedorRegistriesAccts.push(_firebaseID);\r\n\t\t\tlistaFornecedor.push(fornecedorRegistries[_firebaseID]);\r\n\t}\r\n\r\n\t//Varejista\r\n\t//Metodo para criao do item\r\n\tfunction createItem (\r\n\t\tstring memory _firebaseID,\r\n\t\tuint _idItem,\r\n\t\tstring memory _nomeItem,\r\n\t\tstring memory _descricaoItem) public returns (bool){\r\n\r\n\t\t\tItem storage registryItem = itemRegistries[_firebaseID];\r\n\t\t\tregistryItem.idItem = _idItem;\r\n\t\t    registryItem.nomeItem = _nomeItem;\r\n\t\t\tregistryItem.descricaoItem = _descricaoItem;\r\n\t\t\titemRegistriesAccts.push(_firebaseID);\r\n\t\t\tlistaItem.push(itemRegistries[_firebaseID]);\r\n\t}\r\n\r\n\t//Qualquerum\r\n\t//Metodo para criar uma NotaFiscal\r\n\tfunction createNotaFiscal (\r\n\t\tstring memory _firebaseID,\r\n\t\tuint _idNota,\r\n\t\tuint _idItem,\r\n\t\tuint _idPedido,\r\n\t\tstring memory _nomeItem,\r\n\t\tstring memory _tipoNota,\r\n\t\tuint _quantidadeItem,\r\n\t\tuint _valorUnitario\r\n\t\t//uint  _IDFornecedorOrigem,\r\n\t\t//uint  _IDFornecedorDestino\r\n\t\t) public returns (bool){\r\n\r\n\t\t\tNotaFiscal storage registryNotafiscal = notaFsicalRegistries[_firebaseID];\r\n\t\t\tregistryNotafiscal.idNota = _idNota;\r\n\t\t\tif(compareStrings(listaPedido[_idPedido-1].nomeItem,_nomeItem)){\r\n\t\t\t\t\tregistryNotafiscal.tipoNotafiscal = _tipoNota;\r\n\t\t\t\t\tregistryNotafiscal.valorUnitario = _valorUnitario;\r\n\t\t\t\t\tregistryNotafiscal.quantidadeItem = _quantidadeItem;\r\n\t\t\t\t\tregistryNotafiscal.valorTotal = (_quantidadeItem * _valorUnitario);\r\n\t\t\t\t\tregistryNotafiscal.idPedido = _idPedido;\r\n\t\t\t\t\tregistryNotafiscal.descricaoItem = listaItem[_idItem].descricaoItem;\r\n\t\t\t\t\tregistryNotafiscal.nomeItem = _nomeItem;\r\n\t\t\t\t\tnotaFiscalRegistriesAccts.push(_firebaseID);\r\n\t\t\t\t\t//registryNotafiscal.origem = listaFornecedor[_IDFornecedorOrigem-1].nomeFornecedor;\r\n\t\t\t\t\t//registryNotafiscal.destino = listaFornecedor[_IDFornecedorDestino-1].nomeFornecedor;\r\n\t\t\t\t\tlistaNF.push(notaFsicalRegistries[_firebaseID]);\r\n\t\t\t\t\treturn true;\r\n\t\t\t}\r\n\t\t\telse\r\n\t\t\t\treturn true;\r\n\t}\r\n\r\n\t/* Vinculo da Nota Fiscal com o Pedido */\r\n    function addNotaToPedido(\r\n\t    uint _idNota, uint _idPedido) public returns (bool) {\r\n\r\n\t\t//VALIDA SE O PEDIDO  DE MATERIA PRIMA\r\n\t\tif(testaPedidoMateriaPrima(_idPedido)){\r\n\t\t\t//SE FOR A NF PODE SER MATERIA PRIMA\r\n\t\t\tif(testaNFMateriaPrima(_idNota)){\r\n\t\t\t\tlistaPedido[_idPedido-1].listaNFPedido.push(listaNF[_idNota-1]);\r\n\t\t\t}\r\n\t\t\treturn true;\r\n\t\t}\r\n\t\t//VALIDA SE O PEDIDO  DE PRODUCAO ( FORECENDOR CONTRATA UMA PRODUCAO DE UM SUBFORNECEDOR)\r\n\t\telse if(testaPedidoProducao(_idPedido)){\r\n\t\t\t//SE FOR, A NOTA FISCAL PODE SER DE PRODUCAO\r\n\t\t\tif(testaNFProducao(_idNota)){\r\n\t\t\t\t//VINCULA O PEDIDO COM A NOTA\r\n\t\t\t\tlistaPedido[_idPedido-1].listaNFPedido.push(listaNF[_idNota-1]);\r\n\t\t\t}\r\n\t\t\treturn true;\r\n\t\t}\r\n\r\n\t\t//VALIDA SE O PEDIDO  DE CONFECAO ( VAREJISTA CONTRATATA A CONFECACAO DE FORNECEDOR)\r\n\t\telse if(testaPedidoConfeccao(_idPedido)){\r\n\t\t\t//SE FOR, A NOTA FISCAL PODE SER DE COMPRA\r\n\t\t\tif(testaNFCompra(_idNota)){\r\n\t\t\t\t//VINCULA O PEDIDO COM A NOTA\r\n\t\t\t\tlistaPedido[_idPedido-1].listaNFPedido.push(listaNF[_idNota-1]);\r\n\t\t\t}\r\n\t\t\treturn true;\r\n\t\t}\r\n\r\n\t\telse return false;\r\n\t}\r\n\r\n\tfunction testaPedidoMateriaPrima(uint _idPedido) private returns (bool){\r\n\t\tbool testePedido;\r\n\t\tif(compareStrings(listaPedido[_idPedido-1].tipoPedido, \"materia prima\")){\r\n\t\t\ttestePedido=true;\r\n\t\t}\r\n\t\telse testePedido=false;\r\n\t\treturn testePedido;\r\n\t}\r\n\r\n\tfunction testaPedidoProducao(uint _idPedido) private returns (bool){\r\n\t\tbool testePedido;\r\n\t\tif(compareStrings(listaPedido[_idPedido-1].tipoPedido, \"producao\")){\r\n\t\t\ttestePedido=true;\r\n\t\t}\r\n\t\telse testePedido=false;\r\n\t\treturn testePedido;\r\n\t}\r\n\r\n\tfunction testaPedidoConfeccao(uint _idPedido) private returns (bool){\r\n\t\tbool testePedido;\r\n\t\tif(compareStrings(listaPedido[_idPedido-1].tipoPedido, \"confecao\")){\r\n\t\t\ttestePedido=true;\r\n\t\t}\r\n\t\telse testePedido=false;\r\n\t\treturn testePedido;\r\n\t}\r\n\r\n\tfunction testaNFProducao(uint _idNF) private returns (bool){\r\n\t\tbool testeNF;\r\n\t\tif(compareStrings(listaNF[_idNF-1].tipoNotafiscal, \"producao\")){\r\n\t\t\ttesteNF=true;\r\n\t\t}\r\n\t\telse testeNF=false;\r\n\t\treturn testeNF;\r\n\t}\r\n\r\n\tfunction testaNFCompra(uint _idNF) private returns (bool){\r\n\t\tbool testeNF;\r\n\t\tif(compareStrings(listaNF[_idNF-1].tipoNotafiscal, \"compra\")){\r\n\t\t\ttesteNF=true;\r\n\t\t}\r\n\t\telse testeNF=false;\r\n\t\treturn testeNF;\r\n\t}\r\n\r\n\tfunction testaNFMateriaPrima(uint _idNF) private returns (bool){\r\n\t\tbool testeNF;\r\n\t\tif(compareStrings(listaNF[_idNF-1].tipoNotafiscal, \"materia prima\")){\r\n\t\t\ttesteNF=true;\r\n\t\t}\r\n\t\telse testeNF=false;\r\n\t\treturn testeNF;\r\n\t}\r\n\r\n/*\r\n\t// CONSULTA O FORENCEDOR DE ORIGEM DE UMA NOTA FISCAL\r\n\tfunction consultaFornecedorOrigemNF(uint _idNota) public returns (string memory){\r\n         return listaNF[_idNota-1].origem;\r\n\t}\r\n\r\n\t// CONSULTA O FORNECEDOR DE DESTINO DE UMA NOTA FISCAL\r\n\tfunction consultaFornecedorDestinoNF(uint _idNota) public returns (string memory){\r\n\t\treturn listaNF[_idNota-1].destino;\r\n\t}*/\r\n\r\n\t// CONSULTA O VALOR TOTAL DA NOTA\r\n\tfunction consultaValorNF(uint _idNota) public returns (uint){\r\n\t\treturn listaNF[_idNota-1].valorTotal;\r\n\t}\r\n\r\n\r\n\tfunction lookUpIdFornecedor (string memory _firebaseId) public view returns (bytes memory serialized) {\r\n        return getBytesFornecedor(fornecedorRegistries[_firebaseId]);\r\n    }\r\n/*\r\n\tfunction lookUpIdPedido (string memory _firebaseId) public view returns (bytes memory serialized) {\r\n        return getBytesPedido(pedidoRegistries[_firebaseId]);\r\n    }\r\n\r\n\tfunction lookUpIdItem (string memory _firebaseId) public view returns (bytes memory serialized) {\r\n        return getBytesItem(itemRegistries[_firebaseId]);\r\n    }\r\n\r\n\tfunction lookUpIdNF (string memory _firebaseId) public view returns (bytes memory serialized) {\r\n        return getBytesNF(notaFsicalRegistries[_firebaseId]);\r\n    }*/\r\n\r\n\t// TODO: Trocar para fornecedor\r\n\tfunction getBytesFornecedor(Fornecedor memory registryFornec) internal view returns (bytes memory serialized){\r\n        uint offset = 64*(8);\r\n        bytes memory buffer = new  bytes(offset);\r\n\r\n        stringToBytes(offset, bytes(registryFornec.nomeFornecedor), buffer);\r\n        offset -= sizeOfString(registryFornec.nomeFornecedor);\r\n\r\n        stringToBytes(offset, bytes(registryFornec.emailFornecedor), buffer);\r\n        offset -= sizeOfString(registryFornec.emailFornecedor);\r\n\r\n        stringToBytes(offset, bytes(registryFornec.tipoFornecedor), buffer);\r\n        offset -= sizeOfString(registryFornec.tipoFornecedor);\r\n\r\n        return (buffer);\r\n    }\r\n/*\r\n\tfunction getBytesPedido(Pedido memory registry) internal view returns (bytes memory serialized){\r\n        uint offset = 64*(8);\r\n        bytes memory buffer = new  bytes(offset);\r\n\r\n        stringToBytes(offset, bytes(registry.tipoPedido), buffer);\r\n        offset -= sizeOfString(registry.tipoPedido);\r\n\r\n        stringToBytes(offset, bytes(registry.descricaoPedido), buffer);\r\n        offset -= sizeOfString(registry.descricaoPedido);\r\n\r\n        stringToBytes(offset, bytes(registry.nomeFornecedor), buffer);\r\n        offset -= sizeOfString(registry.nomeFornecedor);\r\n\r\n        stringToBytes(offset, bytes(registry.nomeSubfornecedor), buffer);\r\n        offset -= sizeOfString(registry.nomeSubfornecedor);\r\n\r\n        stringToBytes(offset, bytes(registry.nomeItem), buffer);\r\n        offset -= sizeOfString(registry.nomeItem);\r\n\r\n        return (buffer);\r\n    }\r\n\r\n\tfunction getBytesItem(Item memory registry) internal view returns (bytes memory serialized){\r\n        uint offset = 64*(8);\r\n        bytes memory buffer = new  bytes(offset);\r\n\r\n        stringToBytes(offset, bytes(registry.tipoPedido), buffer);\r\n        offset -= sizeOfString(registry.tipoPedido);\r\n\r\n        stringToBytes(offset, bytes(registry.descricaoPedido), buffer);\r\n        offset -= sizeOfString(registry.descricaoPedido);\r\n\r\n        stringToBytes(offset, bytes(registry.nomeFornecedor), buffer);\r\n        offset -= sizeOfString(registry.nomeFornecedor);\r\n\r\n        stringToBytes(offset, bytes(registry.nomeSubfornecedor), buffer);\r\n        offset -= sizeOfString(registry.nomeSubfornecedor);\r\n\r\n        stringToBytes(offset, bytes(registry.nomeItem), buffer);\r\n        offset -= sizeOfString(registry.nomeItem);\r\n\r\n        return (buffer);\r\n    }\r\n\r\n\tfunction getBytesNF(NotaFiscal memory registry) internal view returns (bytes memory serialized){\r\n        uint offset = 64*(8);\r\n        bytes memory buffer = new  bytes(offset);\r\n\r\n        stringToBytes(offset, bytes(registry.tipoPedido), buffer);\r\n        offset -= sizeOfString(registry.tipoPedido);\r\n\r\n        stringToBytes(offset, bytes(registry.descricaoPedido), buffer);\r\n        offset -= sizeOfString(registry.descricaoPedido);\r\n\r\n        stringToBytes(offset, bytes(registry.nomeFornecedor), buffer);\r\n        offset -= sizeOfString(registry.nomeFornecedor);\r\n\r\n        stringToBytes(offset, bytes(registry.nomeSubfornecedor), buffer);\r\n        offset -= sizeOfString(registry.nomeSubfornecedor);\r\n\r\n        stringToBytes(offset, bytes(registry.nomeItem), buffer);\r\n        offset -= sizeOfString(registry.nomeItem);\r\n\r\n        return (buffer);\r\n    }*/\r\n}",
  "sourcePath": "C:/Users/00161615/Documents/project/scm-blockchain-backend-master/contracts/Pedido.sol",
  "compiler": {
    "name": "solc",
    "version": "0.5.8+commit.23d335f2.Emscripten.clang"
  },
  "schemaVersion": "3.0.11",
  "updatedAt": "2019-06-28T22:19:55.500Z",
  "devdoc": {
    "methods": {}
  },
  "userdoc": {
    "methods": {}
  }
}