{
  "contractName": "Pedido",
  "abi": [
    {
      "constant": true,
      "inputs": [
        {
          "name": "",
          "type": "uint256"
        }
      ],
      "name": "listaFornecedor",
      "outputs": [
        {
          "name": "nomeFornecedor",
          "type": "string"
        },
        {
          "name": "emailFornecedor",
          "type": "string"
        },
        {
          "name": "tipoFornecedor",
          "type": "string"
        }
      ],
      "payable": false,
      "stateMutability": "view",
      "type": "function"
    },
    {
      "constant": true,
      "inputs": [
        {
          "name": "",
          "type": "uint256"
        }
      ],
      "name": "listaNF",
      "outputs": [
        {
          "name": "idNota",
          "type": "uint256"
        },
        {
          "name": "nomeItem",
          "type": "string"
        },
        {
          "name": "descricaoItem",
          "type": "string"
        },
        {
          "name": "quantidadeItem",
          "type": "uint256"
        },
        {
          "name": "valorUnitario",
          "type": "uint256"
        },
        {
          "name": "valorTotal",
          "type": "uint256"
        },
        {
          "name": "idPedido",
          "type": "uint256"
        },
        {
          "name": "origem",
          "type": "string"
        },
        {
          "name": "destino",
          "type": "string"
        },
        {
          "name": "tipoNotafiscal",
          "type": "string"
        }
      ],
      "payable": false,
      "stateMutability": "view",
      "type": "function"
    },
    {
      "constant": true,
      "inputs": [
        {
          "name": "",
          "type": "uint256"
        }
      ],
      "name": "notaFiscalRegistriesAccts",
      "outputs": [
        {
          "name": "",
          "type": "string"
        }
      ],
      "payable": false,
      "stateMutability": "view",
      "type": "function"
    },
    {
      "constant": true,
      "inputs": [
        {
          "name": "",
          "type": "uint256"
        }
      ],
      "name": "listaPedido",
      "outputs": [
        {
          "name": "idPedido",
          "type": "uint256"
        },
        {
          "name": "descricaoPedido",
          "type": "string"
        },
        {
          "components": [
            {
              "name": "nomeFornecedor",
              "type": "string"
            },
            {
              "name": "emailFornecedor",
              "type": "string"
            },
            {
              "name": "tipoFornecedor",
              "type": "string"
            }
          ],
          "name": "fornecedor",
          "type": "tuple"
        },
        {
          "name": "nomeFornecedor",
          "type": "string"
        },
        {
          "name": "nomeSubfornecedor",
          "type": "string"
        },
        {
          "name": "idNotaFiscal",
          "type": "uint256"
        },
        {
          "name": "nomeItem",
          "type": "string"
        },
        {
          "name": "tipoPedido",
          "type": "string"
        }
      ],
      "payable": false,
      "stateMutability": "view",
      "type": "function"
    },
    {
      "constant": true,
      "inputs": [
        {
          "name": "",
          "type": "uint256"
        }
      ],
      "name": "fornecedorRegistriesAccts",
      "outputs": [
        {
          "name": "",
          "type": "string"
        }
      ],
      "payable": false,
      "stateMutability": "view",
      "type": "function"
    },
    {
      "constant": true,
      "inputs": [
        {
          "name": "",
          "type": "uint256"
        }
      ],
      "name": "listaItem",
      "outputs": [
        {
          "name": "idItem",
          "type": "uint256"
        },
        {
          "name": "nomeItem",
          "type": "string"
        },
        {
          "name": "descricaoItem",
          "type": "string"
        }
      ],
      "payable": false,
      "stateMutability": "view",
      "type": "function"
    },
    {
      "constant": true,
      "inputs": [
        {
          "name": "",
          "type": "uint256"
        }
      ],
      "name": "itemRegistriesAccts",
      "outputs": [
        {
          "name": "",
          "type": "string"
        }
      ],
      "payable": false,
      "stateMutability": "view",
      "type": "function"
    },
    {
      "constant": true,
      "inputs": [
        {
          "name": "",
          "type": "uint256"
        }
      ],
      "name": "pedidoRegistriesAccts",
      "outputs": [
        {
          "name": "",
          "type": "string"
        }
      ],
      "payable": false,
      "stateMutability": "view",
      "type": "function"
    },
    {
      "constant": false,
      "inputs": [
        {
          "name": "_firebaseId",
          "type": "string"
        },
        {
          "name": "_idPedido",
          "type": "uint256"
        },
        {
          "name": "_item",
          "type": "string"
        },
        {
          "name": "_descricaoPedido",
          "type": "string"
        },
        {
          "name": "_tipoPedido",
          "type": "string"
        },
        {
          "name": "_nomeFornecedor",
          "type": "string"
        }
      ],
      "name": "createPedido",
      "outputs": [
        {
          "name": "",
          "type": "bool"
        }
      ],
      "payable": false,
      "stateMutability": "nonpayable",
      "type": "function"
    },
    {
      "constant": false,
      "inputs": [
        {
          "name": "_firebaseID",
          "type": "string"
        },
        {
          "name": "_nomeFornecedor",
          "type": "string"
        },
        {
          "name": "_tipoFornecedor",
          "type": "string"
        },
        {
          "name": "_emailFornecedor",
          "type": "string"
        }
      ],
      "name": "createFornecedor",
      "outputs": [
        {
          "name": "",
          "type": "bool"
        }
      ],
      "payable": false,
      "stateMutability": "nonpayable",
      "type": "function"
    },
    {
      "constant": false,
      "inputs": [
        {
          "name": "_firebaseID",
          "type": "string"
        },
        {
          "name": "_idItem",
          "type": "uint256"
        },
        {
          "name": "_nomeItem",
          "type": "string"
        },
        {
          "name": "_descricaoItem",
          "type": "string"
        }
      ],
      "name": "createItem",
      "outputs": [
        {
          "name": "",
          "type": "bool"
        }
      ],
      "payable": false,
      "stateMutability": "nonpayable",
      "type": "function"
    },
    {
      "constant": false,
      "inputs": [
        {
          "name": "_firebaseID",
          "type": "string"
        },
        {
          "name": "_idNota",
          "type": "uint256"
        },
        {
          "name": "_idItem",
          "type": "uint256"
        },
        {
          "name": "_idPedido",
          "type": "uint256"
        },
        {
          "name": "_nomeItem",
          "type": "string"
        },
        {
          "name": "_tipoNota",
          "type": "string"
        },
        {
          "name": "_quantidadeItem",
          "type": "uint256"
        },
        {
          "name": "_valorUnitario",
          "type": "uint256"
        }
      ],
      "name": "createNotaFiscal",
      "outputs": [
        {
          "name": "",
          "type": "bool"
        }
      ],
      "payable": false,
      "stateMutability": "nonpayable",
      "type": "function"
    },
    {
      "constant": false,
      "inputs": [
        {
          "name": "_idNota",
          "type": "uint256"
        },
        {
          "name": "_idPedido",
          "type": "uint256"
        }
      ],
      "name": "addNotaToPedido",
      "outputs": [
        {
          "name": "",
          "type": "bool"
        }
      ],
      "payable": false,
      "stateMutability": "nonpayable",
      "type": "function"
    },
    {
      "constant": false,
      "inputs": [
        {
          "name": "_idNota",
          "type": "uint256"
        }
      ],
      "name": "consultaValorNF",
      "outputs": [
        {
          "name": "",
          "type": "uint256"
        }
      ],
      "payable": false,
      "stateMutability": "nonpayable",
      "type": "function"
    },
    {
      "constant": true,
      "inputs": [
        {
          "name": "_firebaseId",
          "type": "string"
        }
      ],
      "name": "lookUpIdFornecedor",
      "outputs": [
        {
          "name": "serialized",
          "type": "bytes"
        }
      ],
      "payable": false,
      "stateMutability": "view",
      "type": "function"
    }
  ],
  "bytecode": "0x60806040526144ba806100136000396000f3fe608060405234801561001057600080fd5b50600436106100f55760003560e01c8063bb011a6f11610097578063d98f72a711610066578063d98f72a71461031c578063dbb54f4c1461034e578063dd6b6ba91461037e578063e1c11db2146103ae576100f5565b8063bb011a6f14610255578063cd5baf231461028c578063d5c094ac146102bc578063d8e301bd146102ec576100f5565b80635091c2f6116100d35780635091c2f6146101955780636ccf2c76146101c5578063780849a0146101f5578063a8203d0f14610225576100f5565b80631f75f8b0146100fa57806325ed80c01461012c5780634eaf8de61461015c575b600080fd5b610114600480360361010f9190810190613f02565b6103de565b60405161012393929190614135565b60405180910390f35b61014660048036036101419190810190613b99565b6105dd565b60405161015391906140d6565b60405180910390f35b61017660048036036101719190810190613f02565b610759565b60405161018c9a999897969594939291906141e1565b60405180910390f35b6101af60048036036101aa9190810190613c5c565b610ab2565b6040516101bc91906140d6565b60405180910390f35b6101df60048036036101da9190810190613f02565b610c00565b6040516101ec9190614113565b60405180910390f35b61020f600480360361020a9190810190613b58565b610cb9565b60405161021c91906140f1565b60405180910390f35b61023f600480360361023a9190810190613e08565b610ed9565b60405161024c91906140d6565b60405180910390f35b61026f600480360361026a9190810190613f02565b61120a565b6040516102839897969594939291906142a0565b60405180910390f35b6102a660048036036102a19190810190613f02565b611747565b6040516102b39190614181565b60405180910390f35b6102d660048036036102d19190810190613d07565b611772565b6040516102e391906140d6565b60405180910390f35b61030660048036036103019190810190613f02565b6126ca565b6040516103139190614113565b60405180910390f35b61033660048036036103319190810190613f02565b612783565b6040516103459392919061419c565b60405180910390f35b61036860048036036103639190810190613f02565b6128ea565b6040516103759190614113565b60405180910390f35b61039860048036036103939190810190613f2b565b6129a3565b6040516103a591906140d6565b60405180910390f35b6103c860048036036103c39190810190613f02565b612e57565b6040516103d59190614113565b60405180910390f35b600681815481106103eb57fe5b9060005260206000209060030201600091509050806000018054600181600116156101000203166002900480601f0160208091040260200160405190810160405280929190818152602001828054600181600116156101000203166002900480156104975780601f1061046c57610100808354040283529160200191610497565b820191906000526020600020905b81548152906001019060200180831161047a57829003601f168201915b505050505090806001018054600181600116156101000203166002900480601f0160208091040260200160405190810160405280929190818152602001828054600181600116156101000203166002900480156105355780601f1061050a57610100808354040283529160200191610535565b820191906000526020600020905b81548152906001019060200180831161051857829003601f168201915b505050505090806002018054600181600116156101000203166002900480601f0160208091040260200160405190810160405280929190818152602001828054600181600116156101000203166002900480156105d35780601f106105a8576101008083540402835291602001916105d3565b820191906000526020600020905b8154815290600101906020018083116105b657829003601f168201915b5050505050905083565b600080600c866040516105f091906140bf565b908152602001604051809103902090508481600001908051906020019061061892919061370b565b508281600101908051906020019061063192919061370b565b508381600201908051906020019061064a92919061370b565b50600d86908060018154018082558091505090600182039060005260206000200160009091929091909150908051906020019061068892919061370b565b50506006600c8760405161069c91906140bf565b908152602001604051809103902090806001815401808255809150509060018203906000526020600020906003020160009091929091909150600082018160000190805460018160011615610100020316600290046106fc92919061378b565b506001820181600101908054600181600116156101000203166002900461072492919061378b565b506002820181600201908054600181600116156101000203166002900461074c92919061378b565b5050505050949350505050565b6004818154811061076657fe5b90600052602060002090600a0201600091509050806000015490806001018054600181600116156101000203166002900480601f0160208091040260200160405190810160405280929190818152602001828054600181600116156101000203166002900480156108185780601f106107ed57610100808354040283529160200191610818565b820191906000526020600020905b8154815290600101906020018083116107fb57829003601f168201915b505050505090806002018054600181600116156101000203166002900480601f0160208091040260200160405190810160405280929190818152602001828054600181600116156101000203166002900480156108b65780601f1061088b576101008083540402835291602001916108b6565b820191906000526020600020905b81548152906001019060200180831161089957829003601f168201915b505050505090806003015490806004015490806005015490806006015490806007018054600181600116156101000203166002900480601f01602080910402602001604051908101604052809291908181526020018280546001816001161561010002031660029004801561096c5780601f106109415761010080835404028352916020019161096c565b820191906000526020600020905b81548152906001019060200180831161094f57829003601f168201915b505050505090806008018054600181600116156101000203166002900480601f016020809104026020016040519081016040528092919081815260200182805460018160011615610100020316600290048015610a0a5780601f106109df57610100808354040283529160200191610a0a565b820191906000526020600020905b8154815290600101906020018083116109ed57829003601f168201915b505050505090806009018054600181600116156101000203166002900480601f016020809104026020016040519081016040528092919081815260200182805460018160011615610100020316600290048015610aa85780601f10610a7d57610100808354040283529160200191610aa8565b820191906000526020600020905b815481529060010190602001808311610a8b57829003601f168201915b505050505090508a565b600080600a86604051610ac591906140bf565b9081526020016040518091039020905084816000018190555083816001019080519060200190610af692919061370b565b5082816002019080519060200190610b0f92919061370b565b50600b869080600181540180825580915050906001820390600052602060002001600090919290919091509080519060200190610b4d92919061370b565b50506007600a87604051610b6191906140bf565b9081526020016040518091039020908060018154018082558091505090600182039060005260206000209060030201600090919290919091506000820154816000015560018201816001019080546001816001161561010002031660029004610bcb92919061378b565b5060028201816002019080546001816001161561010002031660029004610bf392919061378b565b5050505050949350505050565b600f8181548110610c0d57fe5b906000526020600020016000915090508054600181600116156101000203166002900480601f016020809104026020016040519081016040528092919081815260200182805460018160011615610100020316600290048015610cb15780601f10610c8657610100808354040283529160200191610cb1565b820191906000526020600020905b815481529060010190602001808311610c9457829003601f168201915b505050505081565b6060610ed2600c83604051610cce91906140bf565b9081526020016040518091039020604051806060016040529081600082018054600181600116156101000203166002900480601f016020809104026020016040519081016040528092919081815260200182805460018160011615610100020316600290048015610d805780601f10610d5557610100808354040283529160200191610d80565b820191906000526020600020905b815481529060010190602001808311610d6357829003601f168201915b50505050508152602001600182018054600181600116156101000203166002900480601f016020809104026020016040519081016040528092919081815260200182805460018160011615610100020316600290048015610e225780601f10610df757610100808354040283529160200191610e22565b820191906000526020600020905b815481529060010190602001808311610e0557829003601f168201915b50505050508152602001600282018054600181600116156101000203166002900480601f016020809104026020016040519081016040528092919081815260200182805460018160011615610100020316600290048015610ec45780601f10610e9957610100808354040283529160200191610ec4565b820191906000526020600020905b815481529060010190602001808311610ea757829003601f168201915b505050505081525050612f10565b9050919050565b600080600e8a604051610eec91906140bf565b90815260200160405180910390209050888160000181905550610fc860056001890381548110610f1857fe5b90600052602060002090600b02016009018054600181600116156101000203166002900480601f016020809104026020016040519081016040528092919081815260200182805460018160011615610100020316600290048015610fbd5780601f10610f9257610100808354040283529160200191610fbd565b820191906000526020600020905b815481529060010190602001808311610fa057829003601f168201915b505050505087612fbb565b156111f85784816009019080519060200190610fe592919061370b565b5082816004018190555083816003018190555082840281600501819055508681600601819055506007888154811061101957fe5b906000526020600020906003020160020181600201908054600181600116156101000203166002900461104d929190613812565b508581600101908051906020019061106692919061370b565b50600f8a90806001815401808255809150509060018203906000526020600020016000909192909190915090805190602001906110a492919061370b565b50506004600e8b6040516110b891906140bf565b90815260200160405180910390209080600181540180825580915050906001820390600052602060002090600a020160009091929091909150600082015481600001556001820181600101908054600181600116156101000203166002900461112292919061378b565b506002820181600201908054600181600116156101000203166002900461114a92919061378b565b50600382015481600301556004820154816004015560058201548160050155600682015481600601556007820181600701908054600181600116156101000203166002900461119a92919061378b565b50600882018160080190805460018160011615610100020316600290046111c292919061378b565b50600982018160090190805460018160011615610100020316600290046111ea92919061378b565b5050505060019150506111fe565b60019150505b98975050505050505050565b6005818154811061121757fe5b90600052602060002090600b0201600091509050806000015490806001018054600181600116156101000203166002900480601f0160208091040260200160405190810160405280929190818152602001828054600181600116156101000203166002900480156112c95780601f1061129e576101008083540402835291602001916112c9565b820191906000526020600020905b8154815290600101906020018083116112ac57829003601f168201915b50505050509080600201604051806060016040529081600082018054600181600116156101000203166002900480601f0160208091040260200160405190810160405280929190818152602001828054600181600116156101000203166002900480156113775780601f1061134c57610100808354040283529160200191611377565b820191906000526020600020905b81548152906001019060200180831161135a57829003601f168201915b50505050508152602001600182018054600181600116156101000203166002900480601f0160208091040260200160405190810160405280929190818152602001828054600181600116156101000203166002900480156114195780601f106113ee57610100808354040283529160200191611419565b820191906000526020600020905b8154815290600101906020018083116113fc57829003601f168201915b50505050508152602001600282018054600181600116156101000203166002900480601f0160208091040260200160405190810160405280929190818152602001828054600181600116156101000203166002900480156114bb5780601f10611490576101008083540402835291602001916114bb565b820191906000526020600020905b81548152906001019060200180831161149e57829003601f168201915b50505050508152505090806006018054600181600116156101000203166002900480601f01602080910402602001604051908101604052809291908181526020018280546001816001161561010002031660029004801561155d5780601f106115325761010080835404028352916020019161155d565b820191906000526020600020905b81548152906001019060200180831161154057829003601f168201915b505050505090806007018054600181600116156101000203166002900480601f0160208091040260200160405190810160405280929190818152602001828054600181600116156101000203166002900480156115fb5780601f106115d0576101008083540402835291602001916115fb565b820191906000526020600020905b8154815290600101906020018083116115de57829003601f168201915b505050505090806008015490806009018054600181600116156101000203166002900480601f01602080910402602001604051908101604052809291908181526020018280546001816001161561010002031660029004801561169f5780601f106116745761010080835404028352916020019161169f565b820191906000526020600020905b81548152906001019060200180831161168257829003601f168201915b50505050509080600a018054600181600116156101000203166002900480601f01602080910402602001604051908101604052809291908181526020018280546001816001161561010002031660029004801561173d5780601f106117125761010080835404028352916020019161173d565b820191906000526020600020905b81548152906001019060200180831161172057829003601f168201915b5050505050905088565b60006004600183038154811061175957fe5b90600052602060002090600a0201600501549050919050565b60008060088860405161178591906140bf565b908152602001604051809103902090506117d46040518060400160405280600d81526020017f6d617465726961207072696d610000000000000000000000000000000000000081525085612fbb565b15611b115760008090505b600680549050811015611a0b576118ac600682815481106117fc57fe5b90600052602060002090600302016000018054600181600116156101000203166002900480601f0160208091040260200160405190810160405280929190818152602001828054600181600116156101000203166002900480156118a15780601f10611876576101008083540402835291602001916118a1565b820191906000526020600020905b81548152906001019060200180831161188457829003601f168201915b505050505085612fbb565b156119fe576119a6600682815481106118c157fe5b90600052602060002090600302016002018054600181600116156101000203166002900480601f0160208091040260200160405190810160405280929190818152602001828054600181600116156101000203166002900480156119665780601f1061193b57610100808354040283529160200191611966565b820191906000526020600020905b81548152906001019060200180831161194957829003601f168201915b50505050506040518060400160405280600a81526020017f666162726963616e746500000000000000000000000000000000000000000000815250612fbb565b156119f257600681815481106119b857fe5b90600052602060002090600302016000018260060190805460018160011615610100020316600290046119ec929190613812565b506119fd565b6000925050506126c0565b5b80806001019150506117df565b5060008090505b600780549050811015611b0b57611adf60078281548110611a2f57fe5b90600052602060002090600302016001018054600181600116156101000203166002900480601f016020809104026020016040519081016040528092919081815260200182805460018160011615610100020316600290048015611ad45780601f10611aa957610100808354040283529160200191611ad4565b820191906000526020600020905b815481529060010190602001808311611ab757829003601f168201915b505050505088612fbb565b15611afe5786826009019080519060200190611afc92919061370b565b505b8080600101915050611a12565b5061247d565b611b506040518060400160405280600881526020017f70726f647563616f00000000000000000000000000000000000000000000000081525085612fbb565b15611e8a5760005b600680549050811015611d8457611c2560068281548110611b7557fe5b90600052602060002090600302016000018054600181600116156101000203166002900480601f016020809104026020016040519081016040528092919081815260200182805460018160011615610100020316600290048015611c1a5780601f10611bef57610100808354040283529160200191611c1a565b820191906000526020600020905b815481529060010190602001808311611bfd57829003601f168201915b505050505085612fbb565b15611d7757611d1f60068281548110611c3a57fe5b90600052602060002090600302016002018054600181600116156101000203166002900480601f016020809104026020016040519081016040528092919081815260200182805460018160011615610100020316600290048015611cdf5780601f10611cb457610100808354040283529160200191611cdf565b820191906000526020600020905b815481529060010190602001808311611cc257829003601f168201915b50505050506040518060400160405280600d81526020017f737562666f726e656365646f7200000000000000000000000000000000000000815250612fbb565b15611d6b5760068181548110611d3157fe5b9060005260206000209060030201600001826006019080546001816001161561010002031660029004611d65929190613812565b50611d76565b6000925050506126c0565b5b8080600101915050611b58565b5060008090505b600780549050811015611e8457611e5860078281548110611da857fe5b90600052602060002090600302016001018054600181600116156101000203166002900480601f016020809104026020016040519081016040528092919081815260200182805460018160011615610100020316600290048015611e4d5780601f10611e2257610100808354040283529160200191611e4d565b820191906000526020600020905b815481529060010190602001808311611e3057829003601f168201915b505050505088612fbb565b15611e775786826009019080519060200190611e7592919061370b565b505b8080600101915050611d8b565b5061247c565b611ec96040518060400160405280600881526020017f636f6e666563616f00000000000000000000000000000000000000000000000081525085612fbb565b1561247b5760005b60068054905081101561215557611f9e60068281548110611eee57fe5b90600052602060002090600302016000018054600181600116156101000203166002900480601f016020809104026020016040519081016040528092919081815260200182805460018160011615610100020316600290048015611f935780601f10611f6857610100808354040283529160200191611f93565b820191906000526020600020905b815481529060010190602001808311611f7657829003601f168201915b505050505085612fbb565b156121485761209860068281548110611fb357fe5b90600052602060002090600302016002018054600181600116156101000203166002900480601f0160208091040260200160405190810160405280929190818152602001828054600181600116156101000203166002900480156120585780601f1061202d57610100808354040283529160200191612058565b820191906000526020600020905b81548152906001019060200180831161203b57829003601f168201915b50505050506040518060400160405280600a81526020017f666f726e656365646f7200000000000000000000000000000000000000000000815250612fbb565b1561213c57600681815481106120aa57fe5b906000526020600020906003020182600201600082018160000190805460018160011615610100020316600290046120e392919061378b565b506001820181600101908054600181600116156101000203166002900461210b92919061378b565b506002820181600201908054600181600116156101000203166002900461213392919061378b565b50905050612147565b6000925050506126c0565b5b8080600101915050611ed1565b5060008090505b600780549050811015612255576122296007828154811061217957fe5b90600052602060002090600302016001018054600181600116156101000203166002900480601f01602080910402602001604051908101604052809291908181526020018280546001816001161561010002031660029004801561221e5780601f106121f35761010080835404028352916020019161221e565b820191906000526020600020905b81548152906001019060200180831161220157829003601f168201915b505050505088612fbb565b15612248578682600901908051906020019061224692919061370b565b505b808060010191505061215c565b508481600101908051906020019061226e92919061370b565b5086816000018190555060098890806001815401808255809150509060018203906000526020600020016000909192909190915090805190602001906122b592919061370b565b505060056008896040516122c991906140bf565b90815260200160405180910390209080600181540180825580915050906001820390600052602060002090600b020160009091929091909150600082015481600001556001820181600101908054600181600116156101000203166002900461233392919061378b565b5060028201816002016000820181600001908054600181600116156101000203166002900461236392919061378b565b506001820181600101908054600181600116156101000203166002900461238b92919061378b565b50600282018160020190805460018160011615610100020316600290046123b392919061378b565b50505060058201816005019080546123cc929190613899565b50600682018160060190805460018160011615610100020316600290046123f492919061378b565b506007820181600701908054600181600116156101000203166002900461241c92919061378b565b50600882015481600801556009820181600901908054600181600116156101000203166002900461244e92919061378b565b50600a820181600a01908054600181600116156101000203166002900461247692919061378b565b505050505b5b5b8481600101908051906020019061249592919061370b565b508681600001819055508381600a0190805190602001906124b792919061370b565b5060098890806001815401808255809150509060018203906000526020600020016000909192909190915090805190602001906124f592919061370b565b5050600560088960405161250991906140bf565b90815260200160405180910390209080600181540180825580915050906001820390600052602060002090600b020160009091929091909150600082015481600001556001820181600101908054600181600116156101000203166002900461257392919061378b565b506002820181600201600082018160000190805460018160011615610100020316600290046125a392919061378b565b50600182018160010190805460018160011615610100020316600290046125cb92919061378b565b50600282018160020190805460018160011615610100020316600290046125f392919061378b565b505050600582018160050190805461260c929190613899565b506006820181600601908054600181600116156101000203166002900461263492919061378b565b506007820181600701908054600181600116156101000203166002900461265c92919061378b565b50600882015481600801556009820181600901908054600181600116156101000203166002900461268e92919061378b565b50600a820181600a0190805460018160011615610100020316600290046126b692919061378b565b5050505060019150505b9695505050505050565b600d81815481106126d757fe5b906000526020600020016000915090508054600181600116156101000203166002900480601f01602080910402602001604051908101604052809291908181526020018280546001816001161561010002031660029004801561277b5780601f106127505761010080835404028352916020019161277b565b820191906000526020600020905b81548152906001019060200180831161275e57829003601f168201915b505050505081565b6007818154811061279057fe5b9060005260206000209060030201600091509050806000015490806001018054600181600116156101000203166002900480601f0160208091040260200160405190810160405280929190818152602001828054600181600116156101000203166002900480156128425780601f1061281757610100808354040283529160200191612842565b820191906000526020600020905b81548152906001019060200180831161282557829003601f168201915b505050505090806002018054600181600116156101000203166002900480601f0160208091040260200160405190810160405280929190818152602001828054600181600116156101000203166002900480156128e05780601f106128b5576101008083540402835291602001916128e0565b820191906000526020600020905b8154815290600101906020018083116128c357829003601f168201915b5050505050905083565b600b81815481106128f757fe5b906000526020600020016000915090508054600181600116156101000203166002900480601f01602080910402602001604051908101604052809291908181526020018280546001816001161561010002031660029004801561299b5780601f106129705761010080835404028352916020019161299b565b820191906000526020600020905b81548152906001019060200180831161297e57829003601f168201915b505050505081565b60006129ae82612fe1565b15612b32576129bc836130f8565b15612b2957600560018303815481106129d157fe5b90600052602060002090600b0201600501600460018503815481106129f257fe5b90600052602060002090600a02019080600181540180825580915050906001820390600052602060002090600a0201600090919290919091506000820154816000015560018201816001019080546001816001161561010002031660029004612a5c92919061378b565b5060028201816002019080546001816001161561010002031660029004612a8492919061378b565b506003820154816003015560048201548160040155600582015481600501556006820154816006015560078201816007019080546001816001161561010002031660029004612ad492919061378b565b5060088201816008019080546001816001161561010002031660029004612afc92919061378b565b5060098201816009019080546001816001161561010002031660029004612b2492919061378b565b505050505b60019050612e51565b612b3b8261320f565b15612cbf57612b4983613326565b15612cb65760056001830381548110612b5e57fe5b90600052602060002090600b020160050160046001850381548110612b7f57fe5b90600052602060002090600a02019080600181540180825580915050906001820390600052602060002090600a0201600090919290919091506000820154816000015560018201816001019080546001816001161561010002031660029004612be992919061378b565b5060028201816002019080546001816001161561010002031660029004612c1192919061378b565b506003820154816003015560048201548160040155600582015481600501556006820154816006015560078201816007019080546001816001161561010002031660029004612c6192919061378b565b5060088201816008019080546001816001161561010002031660029004612c8992919061378b565b5060098201816009019080546001816001161561010002031660029004612cb192919061378b565b505050505b60019050612e51565b612cc88261343d565b15612e4c57612cd683613554565b15612e435760056001830381548110612ceb57fe5b90600052602060002090600b020160050160046001850381548110612d0c57fe5b90600052602060002090600a02019080600181540180825580915050906001820390600052602060002090600a0201600090919290919091506000820154816000015560018201816001019080546001816001161561010002031660029004612d7692919061378b565b5060028201816002019080546001816001161561010002031660029004612d9e92919061378b565b506003820154816003015560048201548160040155600582015481600501556006820154816006015560078201816007019080546001816001161561010002031660029004612dee92919061378b565b5060088201816008019080546001816001161561010002031660029004612e1692919061378b565b5060098201816009019080546001816001161561010002031660029004612e3e92919061378b565b505050505b60019050612e51565b600090505b92915050565b60098181548110612e6457fe5b906000526020600020016000915090508054600181600116156101000203166002900480601f016020809104026020016040519081016040528092919081815260200182805460018160011615610100020316600290048015612f085780601f10612edd57610100808354040283529160200191612f08565b820191906000526020600020905b815481529060010190602001808311612eeb57829003601f168201915b505050505081565b6060600061020090506060816040519080825280601f01601f191660200182016040528015612f4e5781602001600182028038833980820191505090505b509050612f608285600001518361366b565b612f6d84600001516136cc565b82039150612f808285602001518361366b565b612f8d84602001516136cc565b82039150612fa08285604001518361366b565b612fad84604001516136cc565b820391508092505050919050565b600080838051906020012090506000838051906020012090508082149250505092915050565b6000806130dc60056001850381548110612ff757fe5b90600052602060002090600b0201600a018054600181600116156101000203166002900480601f01602080910402602001604051908101604052809291908181526020018280546001816001161561010002031660029004801561309c5780601f106130715761010080835404028352916020019161309c565b820191906000526020600020905b81548152906001019060200180831161307f57829003601f168201915b50505050506040518060400160405280600d81526020017f6d617465726961207072696d6100000000000000000000000000000000000000815250612fbb565b156130ea57600190506130ef565b600090505b80915050919050565b6000806131f36004600185038154811061310e57fe5b90600052602060002090600a02016009018054600181600116156101000203166002900480601f0160208091040260200160405190810160405280929190818152602001828054600181600116156101000203166002900480156131b35780601f10613188576101008083540402835291602001916131b3565b820191906000526020600020905b81548152906001019060200180831161319657829003601f168201915b50505050506040518060400160405280600d81526020017f6d617465726961207072696d6100000000000000000000000000000000000000815250612fbb565b156132015760019050613206565b600090505b80915050919050565b60008061330a6005600185038154811061322557fe5b90600052602060002090600b0201600a018054600181600116156101000203166002900480601f0160208091040260200160405190810160405280929190818152602001828054600181600116156101000203166002900480156132ca5780601f1061329f576101008083540402835291602001916132ca565b820191906000526020600020905b8154815290600101906020018083116132ad57829003601f168201915b50505050506040518060400160405280600881526020017f70726f647563616f000000000000000000000000000000000000000000000000815250612fbb565b15613318576001905061331d565b600090505b80915050919050565b6000806134216004600185038154811061333c57fe5b90600052602060002090600a02016009018054600181600116156101000203166002900480601f0160208091040260200160405190810160405280929190818152602001828054600181600116156101000203166002900480156133e15780601f106133b6576101008083540402835291602001916133e1565b820191906000526020600020905b8154815290600101906020018083116133c457829003601f168201915b50505050506040518060400160405280600881526020017f70726f647563616f000000000000000000000000000000000000000000000000815250612fbb565b1561342f5760019050613434565b600090505b80915050919050565b6000806135386005600185038154811061345357fe5b90600052602060002090600b0201600a018054600181600116156101000203166002900480601f0160208091040260200160405190810160405280929190818152602001828054600181600116156101000203166002900480156134f85780601f106134cd576101008083540402835291602001916134f8565b820191906000526020600020905b8154815290600101906020018083116134db57829003601f168201915b50505050506040518060400160405280600881526020017f636f6e666563616f000000000000000000000000000000000000000000000000815250612fbb565b15613546576001905061354b565b600090505b80915050919050565b60008061364f6004600185038154811061356a57fe5b90600052602060002090600a02016009018054600181600116156101000203166002900480601f01602080910402602001604051908101604052809291908181526020018280546001816001161561010002031660029004801561360f5780601f106135e45761010080835404028352916020019161360f565b820191906000526020600020905b8154815290600101906020018083116135f257829003601f168201915b50505050506040518060400160405280600681526020017f636f6d7072610000000000000000000000000000000000000000000000000000815250612fbb565b1561365d5760019050613662565b600090505b80915050919050565b6000602083518161367857fe5b0490506000602084518161368857fe5b0611156136985780806001019150505b60018101905060005b818110156136c55760208102840151858401526020850394506001810190506136a1565b5050505050565b600060208251816136d957fe5b049050600060208351816136e957fe5b06146136f85780806001019150505b8080600101915050602081029050919050565b828054600181600116156101000203166002900490600052602060002090601f016020900481019282601f1061374c57805160ff191683800117855561377a565b8280016001018555821561377a579182015b8281111561377957825182559160200191906001019061375e565b5b50905061378791906139eb565b5090565b828054600181600116156101000203166002900490600052602060002090601f016020900481019282601f106137c45780548555613801565b8280016001018555821561380157600052602060002091601f016020900482015b828111156138005782548255916001019190600101906137e5565b5b50905061380e91906139eb565b5090565b828054600181600116156101000203166002900490600052602060002090601f016020900481019282601f1061384b5780548555613888565b8280016001018555821561388857600052602060002091601f016020900482015b8281111561388757825482559160010191906001019061386c565b5b50905061389591906139eb565b5090565b82805482825590600052602060002090600a0281019282156139da57600052602060002091600a0282015b828111156139d957828260008201548160000155600182018160010190805460018160011615610100020316600290046138ff92919061378b565b506002820181600201908054600181600116156101000203166002900461392792919061378b565b50600382015481600301556004820154816004015560058201548160050155600682015481600601556007820181600701908054600181600116156101000203166002900461397792919061378b565b506008820181600801908054600181600116156101000203166002900461399f92919061378b565b50600982018160090190805460018160011615610100020316600290046139c792919061378b565b50505091600a019190600a01906138c4565b5b5090506139e79190613a10565b5090565b613a0d91905b80821115613a095760008160009055506001016139f1565b5090565b90565b613aa491905b80821115613aa057600080820160009055600182016000613a379190613aa7565b600282016000613a479190613aa7565b6003820160009055600482016000905560058201600090556006820160009055600782016000613a779190613aa7565b600882016000613a879190613aa7565b600982016000613a979190613aa7565b50600a01613a16565b5090565b90565b50805460018160011615610100020316600290046000825580601f10613acd5750613aec565b601f016020900490600052602060002090810190613aeb91906139eb565b5b50565b600082601f830112613b0057600080fd5b8135613b13613b0e82614375565b614348565b91508082526020830160208301858383011115613b2f57600080fd5b613b3a838284614416565b50505092915050565b600081359050613b5281614469565b92915050565b600060208284031215613b6a57600080fd5b600082013567ffffffffffffffff811115613b8457600080fd5b613b9084828501613aef565b91505092915050565b60008060008060808587031215613baf57600080fd5b600085013567ffffffffffffffff811115613bc957600080fd5b613bd587828801613aef565b945050602085013567ffffffffffffffff811115613bf257600080fd5b613bfe87828801613aef565b935050604085013567ffffffffffffffff811115613c1b57600080fd5b613c2787828801613aef565b925050606085013567ffffffffffffffff811115613c4457600080fd5b613c5087828801613aef565b91505092959194509250565b60008060008060808587031215613c7257600080fd5b600085013567ffffffffffffffff811115613c8c57600080fd5b613c9887828801613aef565b9450506020613ca987828801613b43565b935050604085013567ffffffffffffffff811115613cc657600080fd5b613cd287828801613aef565b925050606085013567ffffffffffffffff811115613cef57600080fd5b613cfb87828801613aef565b91505092959194509250565b60008060008060008060c08789031215613d2057600080fd5b600087013567ffffffffffffffff811115613d3a57600080fd5b613d4689828a01613aef565b9650506020613d5789828a01613b43565b955050604087013567ffffffffffffffff811115613d7457600080fd5b613d8089828a01613aef565b945050606087013567ffffffffffffffff811115613d9d57600080fd5b613da989828a01613aef565b935050608087013567ffffffffffffffff811115613dc657600080fd5b613dd289828a01613aef565b92505060a087013567ffffffffffffffff811115613def57600080fd5b613dfb89828a01613aef565b9150509295509295509295565b600080600080600080600080610100898b031215613e2557600080fd5b600089013567ffffffffffffffff811115613e3f57600080fd5b613e4b8b828c01613aef565b9850506020613e5c8b828c01613b43565b9750506040613e6d8b828c01613b43565b9650506060613e7e8b828c01613b43565b955050608089013567ffffffffffffffff811115613e9b57600080fd5b613ea78b828c01613aef565b94505060a089013567ffffffffffffffff811115613ec457600080fd5b613ed08b828c01613aef565b93505060c0613ee18b828c01613b43565b92505060e0613ef28b828c01613b43565b9150509295985092959890939650565b600060208284031215613f1457600080fd5b6000613f2284828501613b43565b91505092915050565b60008060408385031215613f3e57600080fd5b6000613f4c85828601613b43565b9250506020613f5d85828601613b43565b9150509250929050565b613f7081614400565b82525050565b6000613f81826143a1565b613f8b81856143c2565b9350613f9b818560208601614425565b613fa481614458565b840191505092915050565b6000613fba826143b7565b613fc481856143f5565b9350613fd4818560208601614425565b80840191505092915050565b6000613feb826143ac565b613ff581856143d3565b9350614005818560208601614425565b61400e81614458565b840191505092915050565b6000614024826143ac565b61402e81856143e4565b935061403e818560208601614425565b61404781614458565b840191505092915050565b6000606083016000830151848203600086015261406f8282613fe0565b915050602083015184820360208601526140898282613fe0565b915050604083015184820360408601526140a38282613fe0565b9150508091505092915050565b6140b98161440c565b82525050565b60006140cb8284613faf565b915081905092915050565b60006020820190506140eb6000830184613f67565b92915050565b6000602082019050818103600083015261410b8184613f76565b905092915050565b6000602082019050818103600083015261412d8184614019565b905092915050565b6000606082019050818103600083015261414f8186614019565b905081810360208301526141638185614019565b905081810360408301526141778184614019565b9050949350505050565b600060208201905061419660008301846140b0565b92915050565b60006060820190506141b160008301866140b0565b81810360208301526141c38185614019565b905081810360408301526141d78184614019565b9050949350505050565b6000610140820190506141f7600083018d6140b0565b8181036020830152614209818c614019565b9050818103604083015261421d818b614019565b905061422c606083018a6140b0565b61423960808301896140b0565b61424660a08301886140b0565b61425360c08301876140b0565b81810360e08301526142658186614019565b905081810361010083015261427a8185614019565b905081810361012083015261428f8184614019565b90509b9a5050505050505050505050565b6000610100820190506142b6600083018b6140b0565b81810360208301526142c8818a614019565b905081810360408301526142dc8189614052565b905081810360608301526142f08188614019565b905081810360808301526143048187614019565b905061431360a08301866140b0565b81810360c08301526143258185614019565b905081810360e08301526143398184614019565b90509998505050505050505050565b6000604051905081810181811067ffffffffffffffff8211171561436b57600080fd5b8060405250919050565b600067ffffffffffffffff82111561438c57600080fd5b601f19601f8301169050602081019050919050565b600081519050919050565b600081519050919050565b600081519050919050565b600082825260208201905092915050565b600082825260208201905092915050565b600082825260208201905092915050565b600081905092915050565b60008115159050919050565b6000819050919050565b82818337600083830152505050565b60005b83811015614443578082015181840152602081019050614428565b83811115614452576000848401525b50505050565b6000601f19601f8301169050919050565b6144728161440c565b811461447d57600080fd5b5056fea265627a7a723058206db2fb2b8186c1396615963a451c996d1c5d1637031d88ad692873e34957620a6c6578706572696d656e74616cf50037",
  "source": "pragma solidity ^0.5.0;\r\npragma experimental ABIEncoderV2;\r\n\r\nimport \"./Parse.sol\";\r\n\r\ncontract StandardInterface {\r\n    function lookUpId(string memory _firebaseId) public view returns(bytes memory serialized) {}\r\n}\r\n\r\ncontract Pedido is Parse {\r\n\r\n\taddress pedidoAddress;\r\n\taddress notaFiscaladdress;\r\n\taddress itemAddress;\r\n\taddress fornecedorAddress;\r\n    NotaFiscal[] public listaNF;\r\n    Pedido[] public listaPedido;\r\n\tFornecedor[] public listaFornecedor;\r\n    Item[] public listaItem;\r\n\r\n    struct Fornecedor{\r\n\t//\tuint256 idFornecedor;\r\n\t\tstring nomeFornecedor;\r\n\t\tstring emailFornecedor;\r\n\t\tstring tipoFornecedor;\r\n\t}\r\n\r\n\tstruct NotaFiscal {\r\n\t\tuint idNota;\r\n\t\tstring nomeItem;\r\n\t\tstring descricaoItem;\r\n\t\tuint quantidadeItem;\r\n\t\tuint valorUnitario;\r\n\t\tuint valorTotal;\r\n\t\tuint idPedido;\r\n\t\tstring origem;\r\n\t\tstring destino;\r\n\t\tstring tipoNotafiscal;\r\n\t}\r\n\r\n\tstruct Pedido{\r\n\t\tuint idPedido;\r\n\t\tstring  descricaoPedido;\r\n\t\tFornecedor fornecedor;\r\n\t\tNotaFiscal[] listaNFPedido;\r\n\t\tstring nomeFornecedor;\r\n\t\tstring nomeSubfornecedor;\r\n\t\tuint idNotaFiscal;\r\n\t\tstring nomeItem;\r\n\t\tstring tipoPedido;\r\n\t}\r\n\r\n\tstruct Item{\r\n\t\tuint idItem;\r\n\t\tstring nomeItem;\r\n\t\tstring descricaoItem;\r\n\t}\r\n\r\n\tmapping(string => Pedido) pedidoRegistries;\r\n    string[] public pedidoRegistriesAccts;\r\n\r\n\tmapping(string => Item) itemRegistries;\r\n    string[] public itemRegistriesAccts;\r\n\r\n\tmapping(string => Fornecedor) fornecedorRegistries;\r\n    string[] public fornecedorRegistriesAccts;\r\n\r\n\tmapping(string => NotaFiscal) notaFsicalRegistries;\r\n\tstring[] public notaFiscalRegistriesAccts;\r\n\r\n\t//Varejista\r\n\t// metodo para criao de um pedido para fabricao de roupa\r\n\tfunction createPedido (\r\n\t\tstring memory _firebaseId,\r\n\t\tuint _idPedido,\r\n\t\tstring memory _item,\r\n\t\tstring memory _descricaoPedido,\r\n\t\tstring memory _tipoPedido,\r\n\t\tstring memory _nomeFornecedor\r\n\t\t) public returns (bool) {\r\n\r\n\t\t\tPedido storage registryPedido = pedidoRegistries[_firebaseId];\r\n\t\t\t//VALIDA SE O TIPO DE PEDIDO E MATERIA PRIMA\r\n\t\t\tif(compareStrings(\"materia prima\",_tipoPedido)){\r\n\t\t\t\t//SE FOR, VERIFICAR SE O FORNECEDOR  O FABRICANTE\r\n\t\t\t\tfor(uint ip1=0; ip1 < listaFornecedor.length; ip1++){\r\n\t\t\t\t\tif(compareStrings(listaFornecedor[ip1].nomeFornecedor, _nomeFornecedor)){\r\n\t\t\t\t\t\tif(compareStrings(listaFornecedor[ip1].tipoFornecedor, \"fabricante\")){\r\n\t\t\t\t\t\t\tregistryPedido.nomeFornecedor = listaFornecedor[ip1].nomeFornecedor;\r\n\t\t\t\t\t\t}\r\n\t\t\t\t\t\telse return false;\r\n\t\t\t\t\t}\r\n\t\t\t\t}\r\n\t\t\t\t//VALIDA SE O ITEM JA ESTA CADASTRADO\r\n\t\t\t\tfor(uint ip2=0;ip2<listaItem.length;ip2++){\r\n\t\t\t\t\tif(compareStrings(listaItem[ip2].nomeItem, _item)){\r\n\t\t\t\t\t\tregistryPedido.nomeItem = _item;\r\n\t\t\t\t\t}\r\n\t\t\t\t}\r\n\t\t\t}\r\n\r\n\t\t\t//VALIDA SE O TIPO DE PEDIDO E PRODUCAO\r\n\t\t\telse if(compareStrings(\"producao\",_tipoPedido)){\r\n\t\t\t\t//SE FOR, VERIFICAR SE O FORNECEDOR  O SUBFORNECEDOR\r\n\t\t\t\tfor(uint ip3; ip3 < listaFornecedor.length; ip3++){\r\n\t\t\t\t\tif(compareStrings(listaFornecedor[ip3].nomeFornecedor, _nomeFornecedor)){\r\n\t\t\t\t\t\tif(compareStrings(listaFornecedor[ip3].tipoFornecedor, \"subfornecedor\")){\r\n\t\t\t\t\t\t\tregistryPedido.nomeFornecedor = listaFornecedor[ip3].nomeFornecedor;\r\n\t\t\t\t\t\t}\r\n\t\t\t\t\t\telse return false;\r\n\t\t\t\t\t}\r\n\t\t\t\t}\r\n\t\t\t\t//VALIDA SE O ITEM JA ESTA CADASTRADO\r\n\t\t\t\tfor(uint ip4=0;ip4<listaItem.length;ip4++){\r\n\t\t\t\t\tif(compareStrings(listaItem[ip4].nomeItem, _item)){\r\n\t\t\t\t\t\tregistryPedido.nomeItem = _item;\r\n\t\t\t\t\t}\r\n\t\t\t\t}\r\n\t\t\t}\r\n\r\n\t\t\t//VALIDA SE O TIPO DE PEDIDO E DE CONFECCAO\r\n\t\t\telse if(compareStrings(\"confecao\",_tipoPedido)){\r\n\t\t\t\t//SE FOR, VERIFICAR SE O FORNECEDOR  O FORNECEDOR\r\n\t\t\t\tfor(uint ip5; ip5 < listaFornecedor.length; ip5++){\r\n\t\t\t\t\tif(compareStrings(listaFornecedor[ip5].nomeFornecedor, _nomeFornecedor)){\r\n\t\t\t\t\t\tif(compareStrings(listaFornecedor[ip5].tipoFornecedor, \"fornecedor\")){\r\n\t\t\t\t\t\t\tregistryPedido.fornecedor = listaFornecedor[ip5];\r\n\t\t\t\t\t\t}\r\n\t\t\t\t\t\telse return false;\r\n\t\t\t\t\t}\r\n\t\t\t\t}\r\n\t\t\t\t//VALIDA SE O ITEM JA ESTA CADASTRADO\r\n\t\t\t\tfor(uint ip6=0;ip6<listaItem.length;ip6++){\r\n\t\t\t\t\tif(compareStrings(listaItem[ip6].nomeItem, _item)){\r\n\t\t\t\t\t\tregistryPedido.nomeItem = _item;\r\n\t\t\t\t\t}\r\n\t\t\t\t}\r\n\t\t\t\t//CADASTRA O RESTANTE DOS DADOS DE PEDIDO\r\n\t\t\t\tregistryPedido.descricaoPedido = _descricaoPedido;\r\n\t\t\t\tregistryPedido.idPedido = _idPedido;\r\n\t\t\t\tpedidoRegistriesAccts.push(_firebaseId);\r\n\t\t\t\tlistaPedido.push(pedidoRegistries[_firebaseId]);\r\n\t\t\t}\r\n\r\n\t\t\t//CADASTRA O RESTANTE DOS DADOS DE PEDIDO\r\n\t\t\t\tregistryPedido.descricaoPedido = _descricaoPedido;\r\n\t\t\t\tregistryPedido.idPedido = _idPedido;\r\n\t\t\t\tregistryPedido.tipoPedido = _tipoPedido;\r\n\t\t\t\tpedidoRegistriesAccts.push(_firebaseId);\r\n\t\t\t\tlistaPedido.push(pedidoRegistries[_firebaseId]);\r\n\r\n\t\treturn true;\r\n\t}\r\n\r\n\t//Varejista\r\n\t//metodo para cadastro de Fonrnecedor\r\n\tfunction createFornecedor (\r\n\t\tstring memory _firebaseID,\r\n\t\t//uint _idFornecedor,\r\n\t\tstring memory _nomeFornecedor,\r\n\t\tstring memory _tipoFornecedor,\r\n\t\tstring memory _emailFornecedor) public returns (bool){\r\n\r\n\t\t\tFornecedor storage registryFornecedor = fornecedorRegistries[_firebaseID];\r\n\t\t\t//registryFornecedor.idFornecedor = _idFornecedor;\r\n\t\t    registryFornecedor.nomeFornecedor = _nomeFornecedor;\r\n\t\t\tregistryFornecedor.emailFornecedor = _emailFornecedor;\r\n\t\t\tregistryFornecedor.tipoFornecedor = _tipoFornecedor;\r\n\t\t\tfornecedorRegistriesAccts.push(_firebaseID);\r\n\t\t\tlistaFornecedor.push(fornecedorRegistries[_firebaseID]);\r\n\t}\r\n\r\n\t//Varejista\r\n\t//Metodo para criao do item\r\n\tfunction createItem (\r\n\t\tstring memory _firebaseID,\r\n\t\tuint _idItem,\r\n\t\tstring memory _nomeItem,\r\n\t\tstring memory _descricaoItem) public returns (bool){\r\n\r\n\t\t\tItem storage registryItem = itemRegistries[_firebaseID];\r\n\t\t\tregistryItem.idItem = _idItem;\r\n\t\t    registryItem.nomeItem = _nomeItem;\r\n\t\t\tregistryItem.descricaoItem = _descricaoItem;\r\n\t\t\titemRegistriesAccts.push(_firebaseID);\r\n\t\t\tlistaItem.push(itemRegistries[_firebaseID]);\r\n\t}\r\n\r\n\t//Qualquerum\r\n\t//Metodo para criar uma NotaFiscal\r\n\tfunction createNotaFiscal (\r\n\t\tstring memory _firebaseID,\r\n\t\tuint _idNota,\r\n\t\tuint _idItem,\r\n\t\tuint _idPedido,\r\n\t\tstring memory _nomeItem,\r\n\t\tstring memory _tipoNota,\r\n\t\tuint _quantidadeItem,\r\n\t\tuint _valorUnitario\r\n\t\t//uint  _IDFornecedorOrigem,\r\n\t\t//uint  _IDFornecedorDestino\r\n\t\t) public returns (bool){\r\n\r\n\t\t\tNotaFiscal storage registryNotafiscal = notaFsicalRegistries[_firebaseID];\r\n\t\t\tregistryNotafiscal.idNota = _idNota;\r\n\t\t\tif(compareStrings(listaPedido[_idPedido-1].nomeItem,_nomeItem)){\r\n\t\t\t\t\tregistryNotafiscal.tipoNotafiscal = _tipoNota;\r\n\t\t\t\t\tregistryNotafiscal.valorUnitario = _valorUnitario;\r\n\t\t\t\t\tregistryNotafiscal.quantidadeItem = _quantidadeItem;\r\n\t\t\t\t\tregistryNotafiscal.valorTotal = (_quantidadeItem * _valorUnitario);\r\n\t\t\t\t\tregistryNotafiscal.idPedido = _idPedido;\r\n\t\t\t\t\tregistryNotafiscal.descricaoItem = listaItem[_idItem].descricaoItem;\r\n\t\t\t\t\tregistryNotafiscal.nomeItem = _nomeItem;\r\n\t\t\t\t\tnotaFiscalRegistriesAccts.push(_firebaseID);\r\n\t\t\t\t\t//registryNotafiscal.origem = listaFornecedor[_IDFornecedorOrigem-1].nomeFornecedor;\r\n\t\t\t\t\t//registryNotafiscal.destino = listaFornecedor[_IDFornecedorDestino-1].nomeFornecedor;\r\n\t\t\t\t\tlistaNF.push(notaFsicalRegistries[_firebaseID]);\r\n\t\t\t\t\treturn true;\r\n\t\t\t}\r\n\t\t\telse\r\n\t\t\t\treturn true;\r\n\t}\r\n\r\n\t/* Vinculo da Nota Fiscal com o Pedido */\r\n    function addNotaToPedido(\r\n\t    uint _idNota, uint _idPedido) public returns (bool) {\r\n\r\n\t\t//VALIDA SE O PEDIDO  DE MATERIA PRIMA\r\n\t\tif(testaPedidoMateriaPrima(_idPedido)){\r\n\t\t\t//SE FOR A NF PODE SER MATERIA PRIMA\r\n\t\t\tif(testaNFMateriaPrima(_idNota)){\r\n\t\t\t\tlistaPedido[_idPedido-1].listaNFPedido.push(listaNF[_idNota-1]);\r\n\t\t\t}\r\n\t\t\treturn true;\r\n\t\t}\r\n\t\t//VALIDA SE O PEDIDO  DE PRODUCAO ( FORECENDOR CONTRATA UMA PRODUCAO DE UM SUBFORNECEDOR)\r\n\t\telse if(testaPedidoProducao(_idPedido)){\r\n\t\t\t//SE FOR, A NOTA FISCAL PODE SER DE PRODUCAO\r\n\t\t\tif(testaNFProducao(_idNota)){\r\n\t\t\t\t//VINCULA O PEDIDO COM A NOTA\r\n\t\t\t\tlistaPedido[_idPedido-1].listaNFPedido.push(listaNF[_idNota-1]);\r\n\t\t\t}\r\n\t\t\treturn true;\r\n\t\t}\r\n\r\n\t\t//VALIDA SE O PEDIDO  DE CONFECAO ( VAREJISTA CONTRATATA A CONFECACAO DE FORNECEDOR)\r\n\t\telse if(testaPedidoConfeccao(_idPedido)){\r\n\t\t\t//SE FOR, A NOTA FISCAL PODE SER DE COMPRA\r\n\t\t\tif(testaNFCompra(_idNota)){\r\n\t\t\t\t//VINCULA O PEDIDO COM A NOTA\r\n\t\t\t\tlistaPedido[_idPedido-1].listaNFPedido.push(listaNF[_idNota-1]);\r\n\t\t\t}\r\n\t\t\treturn true;\r\n\t\t}\r\n\r\n\t\telse return false;\r\n\t}\r\n\r\n\tfunction testaPedidoMateriaPrima(uint _idPedido) private returns (bool){\r\n\t\tbool testePedido;\r\n\t\tif(compareStrings(listaPedido[_idPedido-1].tipoPedido, \"materia prima\")){\r\n\t\t\ttestePedido=true;\r\n\t\t}\r\n\t\telse testePedido=false;\r\n\t\treturn testePedido;\r\n\t}\r\n\r\n\tfunction testaPedidoProducao(uint _idPedido) private returns (bool){\r\n\t\tbool testePedido;\r\n\t\tif(compareStrings(listaPedido[_idPedido-1].tipoPedido, \"producao\")){\r\n\t\t\ttestePedido=true;\r\n\t\t}\r\n\t\telse testePedido=false;\r\n\t\treturn testePedido;\r\n\t}\r\n\r\n\tfunction testaPedidoConfeccao(uint _idPedido) private returns (bool){\r\n\t\tbool testePedido;\r\n\t\tif(compareStrings(listaPedido[_idPedido-1].tipoPedido, \"confecao\")){\r\n\t\t\ttestePedido=true;\r\n\t\t}\r\n\t\telse testePedido=false;\r\n\t\treturn testePedido;\r\n\t}\r\n\r\n\tfunction testaNFProducao(uint _idNF) private returns (bool){\r\n\t\tbool testeNF;\r\n\t\tif(compareStrings(listaNF[_idNF-1].tipoNotafiscal, \"producao\")){\r\n\t\t\ttesteNF=true;\r\n\t\t}\r\n\t\telse testeNF=false;\r\n\t\treturn testeNF;\r\n\t}\r\n\r\n\tfunction testaNFCompra(uint _idNF) private returns (bool){\r\n\t\tbool testeNF;\r\n\t\tif(compareStrings(listaNF[_idNF-1].tipoNotafiscal, \"compra\")){\r\n\t\t\ttesteNF=true;\r\n\t\t}\r\n\t\telse testeNF=false;\r\n\t\treturn testeNF;\r\n\t}\r\n\r\n\tfunction testaNFMateriaPrima(uint _idNF) private returns (bool){\r\n\t\tbool testeNF;\r\n\t\tif(compareStrings(listaNF[_idNF-1].tipoNotafiscal, \"materia prima\")){\r\n\t\t\ttesteNF=true;\r\n\t\t}\r\n\t\telse testeNF=false;\r\n\t\treturn testeNF;\r\n\t}\r\n\r\n/*\r\n\t// CONSULTA O FORENCEDOR DE ORIGEM DE UMA NOTA FISCAL\r\n\tfunction consultaFornecedorOrigemNF(uint _idNota) public returns (string memory){\r\n         return listaNF[_idNota-1].origem;\r\n\t}\r\n\r\n\t// CONSULTA O FORNECEDOR DE DESTINO DE UMA NOTA FISCAL\r\n\tfunction consultaFornecedorDestinoNF(uint _idNota) public returns (string memory){\r\n\t\treturn listaNF[_idNota-1].destino;\r\n\t}*/\r\n\r\n\t// CONSULTA O VALOR TOTAL DA NOTA\r\n\tfunction consultaValorNF(uint _idNota) public returns (uint){\r\n\t\treturn listaNF[_idNota-1].valorTotal;\r\n\t}\r\n\r\n\r\n\tfunction lookUpIdFornecedor (string memory _firebaseId) public view returns (bytes memory serialized) {\r\n        return getBytesFornecedor(fornecedorRegistries[_firebaseId]);\r\n    }\r\n/*\r\n\tfunction lookUpIdPedido (string memory _firebaseId) public view returns (bytes memory serialized) {\r\n        return getBytesPedido(pedidoRegistries[_firebaseId]);\r\n    }\r\n\r\n\tfunction lookUpIdItem (string memory _firebaseId) public view returns (bytes memory serialized) {\r\n        return getBytesItem(itemRegistries[_firebaseId]);\r\n    }\r\n\r\n\tfunction lookUpIdNF (string memory _firebaseId) public view returns (bytes memory serialized) {\r\n        return getBytesNF(notaFsicalRegistries[_firebaseId]);\r\n    }*/\r\n\r\n\t// TODO: Trocar para fornecedor\r\n\tfunction getBytesFornecedor(Fornecedor memory registryFornec) internal view returns (bytes memory serialized){\r\n        uint offset = 64*(8);\r\n        bytes memory buffer = new  bytes(offset);\r\n\r\n        stringToBytes(offset, bytes(registryFornec.nomeFornecedor), buffer);\r\n        offset -= sizeOfString(registryFornec.nomeFornecedor);\r\n\r\n        stringToBytes(offset, bytes(registryFornec.emailFornecedor), buffer);\r\n        offset -= sizeOfString(registryFornec.emailFornecedor);\r\n\r\n        stringToBytes(offset, bytes(registryFornec.tipoFornecedor), buffer);\r\n        offset -= sizeOfString(registryFornec.tipoFornecedor);\r\n\r\n        return (buffer);\r\n    }\r\n/*\r\n\tfunction getBytesPedido(Pedido memory registry) internal view returns (bytes memory serialized){\r\n        uint offset = 64*(8);\r\n        bytes memory buffer = new  bytes(offset);\r\n\r\n        stringToBytes(offset, bytes(registry.tipoPedido), buffer);\r\n        offset -= sizeOfString(registry.tipoPedido);\r\n\r\n        stringToBytes(offset, bytes(registry.descricaoPedido), buffer);\r\n        offset -= sizeOfString(registry.descricaoPedido);\r\n\r\n        stringToBytes(offset, bytes(registry.nomeFornecedor), buffer);\r\n        offset -= sizeOfString(registry.nomeFornecedor);\r\n\r\n        stringToBytes(offset, bytes(registry.nomeSubfornecedor), buffer);\r\n        offset -= sizeOfString(registry.nomeSubfornecedor);\r\n\r\n        stringToBytes(offset, bytes(registry.nomeItem), buffer);\r\n        offset -= sizeOfString(registry.nomeItem);\r\n\r\n        return (buffer);\r\n    }\r\n\r\n\tfunction getBytesItem(Item memory registry) internal view returns (bytes memory serialized){\r\n        uint offset = 64*(8);\r\n        bytes memory buffer = new  bytes(offset);\r\n\r\n        stringToBytes(offset, bytes(registry.tipoPedido), buffer);\r\n        offset -= sizeOfString(registry.tipoPedido);\r\n\r\n        stringToBytes(offset, bytes(registry.descricaoPedido), buffer);\r\n        offset -= sizeOfString(registry.descricaoPedido);\r\n\r\n        stringToBytes(offset, bytes(registry.nomeFornecedor), buffer);\r\n        offset -= sizeOfString(registry.nomeFornecedor);\r\n\r\n        stringToBytes(offset, bytes(registry.nomeSubfornecedor), buffer);\r\n        offset -= sizeOfString(registry.nomeSubfornecedor);\r\n\r\n        stringToBytes(offset, bytes(registry.nomeItem), buffer);\r\n        offset -= sizeOfString(registry.nomeItem);\r\n\r\n        return (buffer);\r\n    }\r\n\r\n\tfunction getBytesNF(NotaFiscal memory registry) internal view returns (bytes memory serialized){\r\n        uint offset = 64*(8);\r\n        bytes memory buffer = new  bytes(offset);\r\n\r\n        stringToBytes(offset, bytes(registry.tipoPedido), buffer);\r\n        offset -= sizeOfString(registry.tipoPedido);\r\n\r\n        stringToBytes(offset, bytes(registry.descricaoPedido), buffer);\r\n        offset -= sizeOfString(registry.descricaoPedido);\r\n\r\n        stringToBytes(offset, bytes(registry.nomeFornecedor), buffer);\r\n        offset -= sizeOfString(registry.nomeFornecedor);\r\n\r\n        stringToBytes(offset, bytes(registry.nomeSubfornecedor), buffer);\r\n        offset -= sizeOfString(registry.nomeSubfornecedor);\r\n\r\n        stringToBytes(offset, bytes(registry.nomeItem), buffer);\r\n        offset -= sizeOfString(registry.nomeItem);\r\n\r\n        return (buffer);\r\n    }*/\r\n}",
  "sourcePath": "C:/Users/00161615/Documents/project/scm-blockchain-backend-master/contracts/Pedido.sol",
  "compiler": {
    "name": "solc",
    "version": "0.5.8+commit.23d335f2.Emscripten.clang"
  },
  "schemaVersion": "3.0.11",
  "updatedAt": "2019-06-25T20:29:09.927Z",
  "devdoc": {
    "methods": {}
  },
  "userdoc": {
    "methods": {}
  }
}