{
  "contractName": "StandardRegistry",
  "abi": [
    {
      "constant": true,
      "inputs": [
        {
          "name": "",
          "type": "uint256"
        }
      ],
      "name": "regestriesAccts",
      "outputs": [
        {
          "name": "",
          "type": "string"
        }
      ],
      "payable": false,
      "stateMutability": "view",
      "type": "function"
    },
    {
      "constant": false,
      "inputs": [
        {
          "name": "_firebaseId",
          "type": "string"
        },
        {
          "name": "_given_name",
          "type": "string"
        },
        {
          "name": "_family_name",
          "type": "string"
        },
        {
          "name": "_telephone",
          "type": "string"
        },
        {
          "name": "_birthday",
          "type": "string"
        },
        {
          "name": "_add",
          "type": "string"
        },
        {
          "name": "_add_complement",
          "type": "string"
        },
        {
          "name": "_city",
          "type": "string"
        },
        {
          "name": "_state",
          "type": "string"
        },
        {
          "name": "_zipcode",
          "type": "string"
        },
        {
          "name": "_mail",
          "type": "string"
        }
      ],
      "name": "createStandardregistry",
      "outputs": [],
      "payable": false,
      "stateMutability": "nonpayable",
      "type": "function"
    },
    {
      "constant": true,
      "inputs": [
        {
          "name": "_given_name",
          "type": "string"
        },
        {
          "name": "_family_name",
          "type": "string"
        },
        {
          "name": "_birthday",
          "type": "string"
        },
        {
          "name": "_city",
          "type": "string"
        },
        {
          "name": "_state",
          "type": "string"
        }
      ],
      "name": "lookUpregistry",
      "outputs": [
        {
          "name": "",
          "type": "bool"
        }
      ],
      "payable": false,
      "stateMutability": "view",
      "type": "function"
    },
    {
      "constant": true,
      "inputs": [
        {
          "name": "_firebaseId",
          "type": "string"
        }
      ],
      "name": "lookUpId",
      "outputs": [
        {
          "name": "serialized",
          "type": "bytes"
        }
      ],
      "payable": false,
      "stateMutability": "view",
      "type": "function"
    },
    {
      "constant": false,
      "inputs": [
        {
          "name": "_firebaseId",
          "type": "string"
        }
      ],
      "name": "deleteRegistry",
      "outputs": [],
      "payable": false,
      "stateMutability": "nonpayable",
      "type": "function"
    },
    {
      "constant": false,
      "inputs": [
        {
          "name": "_firebaseId",
          "type": "string"
        }
      ],
      "name": "update",
      "outputs": [],
      "payable": false,
      "stateMutability": "nonpayable",
      "type": "function"
    },
    {
      "constant": true,
      "inputs": [
        {
          "components": [
            {
              "name": "given_name",
              "type": "string"
            },
            {
              "name": "family_name",
              "type": "string"
            },
            {
              "name": "telephone",
              "type": "string"
            },
            {
              "name": "birthday",
              "type": "string"
            },
            {
              "name": "add",
              "type": "string"
            },
            {
              "name": "add_complement",
              "type": "string"
            },
            {
              "name": "city",
              "type": "string"
            },
            {
              "name": "state",
              "type": "string"
            },
            {
              "name": "zipcode",
              "type": "string"
            },
            {
              "name": "mail",
              "type": "string"
            }
          ],
          "name": "registry",
          "type": "tuple"
        }
      ],
      "name": "getBytes",
      "outputs": [
        {
          "name": "serialized",
          "type": "bytes"
        }
      ],
      "payable": false,
      "stateMutability": "view",
      "type": "function"
    }
  ],
  "bytecode": "0x6080604052611ce6806100136000396000f300608060405260043610610083576000357c0100000000000000000000000000000000000000000000000000000000900463ffffffff1680631cb1b265146100885780633d7403a3146100b15780634137e9fa146100da578063494e5cc8146101175780635a853ca014610154578063622cac0a1461017d578063fd386bbb146101ba575b600080fd5b34801561009457600080fd5b506100af60048036036100aa919081019061173c565b6101f7565b005b3480156100bd57600080fd5b506100d860048036036100d3919081019061173c565b610308565b005b3480156100e657600080fd5b5061010160048036036100fc9190810190611a64565b61030b565b60405161010e9190611b64565b60405180910390f35b34801561012357600080fd5b5061013e6004803603610139919081019061173c565b61049a565b60405161014b9190611b64565b60405180910390f35b34801561016057600080fd5b5061017b6004803603610176919081019061186c565b610b77565b005b34801561018957600080fd5b506101a4600480360361019f919081019061177d565b610d2e565b6040516101b19190611b49565b60405180910390f35b3480156101c657600080fd5b506101e160048036036101dc9190810190611aa5565b611175565b6040516101ee9190611b86565b60405180910390f35b6000816040518082805190602001908083835b60208310151561022f578051825260208201915060208101905060208303925061020a565b6001836020036101000a03801982511681845116808217855250505050505090500191505090815260200160405180910390206000808201600061027391906113ad565b60018201600061028391906113ad565b60028201600061029391906113ad565b6003820160006102a391906113ad565b6004820160006102b391906113ad565b6005820160006102c391906113ad565b6006820160006102d391906113ad565b6007820160006102e391906113ad565b6008820160006102f391906113ad565b60098201600061030391906113ad565b505050565b50565b6060600060606102809150816040519080825280601f01601f1916602001820160405280156103495781602001602082028038833980820191505090505b50905061035c8285610120015183611230565b61036a84610120015161128f565b8203915061037e8285610100015183611230565b61038c84610100015161128f565b8203915061039f828560e0015183611230565b6103ac8460e0015161128f565b820391506103bf828560c0015183611230565b6103cc8460c0015161128f565b820391506103df828560a0015183611230565b6103ec8460a0015161128f565b820391506103ff82856080015183611230565b61040c846080015161128f565b8203915061041f82856060015183611230565b61042c846060015161128f565b8203915061043f82856040015183611230565b61044c846040015161128f565b8203915061045f82856020015183611230565b61046c846020015161128f565b8203915061047f82856000015183611230565b61048c846000015161128f565b820391508092505050919050565b6060610b706000836040518082805190602001908083835b6020831015156104d757805182526020820191506020810190506020830392506104b2565b6001836020036101000a03801982511681845116808217855250505050505090500191505090815260200160405180910390206101406040519081016040529081600082018054600181600116156101000203166002900480601f0160208091040260200160405190810160405280929190818152602001828054600181600116156101000203166002900480156105b05780601f10610585576101008083540402835291602001916105b0565b820191906000526020600020905b81548152906001019060200180831161059357829003601f168201915b50505050508152602001600182018054600181600116156101000203166002900480601f0160208091040260200160405190810160405280929190818152602001828054600181600116156101000203166002900480156106525780601f1061062757610100808354040283529160200191610652565b820191906000526020600020905b81548152906001019060200180831161063557829003601f168201915b50505050508152602001600282018054600181600116156101000203166002900480601f0160208091040260200160405190810160405280929190818152602001828054600181600116156101000203166002900480156106f45780601f106106c9576101008083540402835291602001916106f4565b820191906000526020600020905b8154815290600101906020018083116106d757829003601f168201915b50505050508152602001600382018054600181600116156101000203166002900480601f0160208091040260200160405190810160405280929190818152602001828054600181600116156101000203166002900480156107965780601f1061076b57610100808354040283529160200191610796565b820191906000526020600020905b81548152906001019060200180831161077957829003601f168201915b50505050508152602001600482018054600181600116156101000203166002900480601f0160208091040260200160405190810160405280929190818152602001828054600181600116156101000203166002900480156108385780601f1061080d57610100808354040283529160200191610838565b820191906000526020600020905b81548152906001019060200180831161081b57829003601f168201915b50505050508152602001600582018054600181600116156101000203166002900480601f0160208091040260200160405190810160405280929190818152602001828054600181600116156101000203166002900480156108da5780601f106108af576101008083540402835291602001916108da565b820191906000526020600020905b8154815290600101906020018083116108bd57829003601f168201915b50505050508152602001600682018054600181600116156101000203166002900480601f01602080910402602001604051908101604052809291908181526020018280546001816001161561010002031660029004801561097c5780601f106109515761010080835404028352916020019161097c565b820191906000526020600020905b81548152906001019060200180831161095f57829003601f168201915b50505050508152602001600782018054600181600116156101000203166002900480601f016020809104026020016040519081016040528092919081815260200182805460018160011615610100020316600290048015610a1e5780601f106109f357610100808354040283529160200191610a1e565b820191906000526020600020905b815481529060010190602001808311610a0157829003601f168201915b50505050508152602001600882018054600181600116156101000203166002900480601f016020809104026020016040519081016040528092919081815260200182805460018160011615610100020316600290048015610ac05780601f10610a9557610100808354040283529160200191610ac0565b820191906000526020600020905b815481529060010190602001808311610aa357829003601f168201915b50505050508152602001600982018054600181600116156101000203166002900480601f016020809104026020016040519081016040528092919081815260200182805460018160011615610100020316600290048015610b625780601f10610b3757610100808354040283529160200191610b62565b820191906000526020600020905b815481529060010190602001808311610b4557829003601f168201915b50505050508152505061030b565b9050919050565b6000808c6040518082805190602001908083835b602083101515610bb05780518252602082019150602081019050602083039250610b8b565b6001836020036101000a038019825116818451168082178552505050505050905001915050908152602001604051809103902090508a816000019080519060200190610bfd9291906113f5565b5089816001019080519060200190610c169291906113f5565b5088816002019080519060200190610c2f9291906113f5565b5087816003019080519060200190610c489291906113f5565b5086816004019080519060200190610c619291906113f5565b5085816005019080519060200190610c7a9291906113f5565b5084816006019080519060200190610c939291906113f5565b5083816007019080519060200190610cac9291906113f5565b5082816008019080519060200190610cc59291906113f5565b5081816009019080519060200190610cde9291906113f5565b506001808d9080600181540180825580915050906001820390600052602060002001600090919290919091509080519060200190610d1d9291906113f5565b505050505050505050505050505050565b60008060008060006001805490501415610d4b5760009350611169565b600092505b60018054905083101561116457600183815481101515610d6c57fe5b9060005260206000200191506000826040518082805460018160011615610100020316600290048015610dd65780601f10610db4576101008083540402835291820191610dd6565b820191906000526020600020905b815481529060010190602001808311610dc2575b505091505090815260200160405180910390209050610e91816000018054600181600116156101000203166002900480601f016020809104026020016040519081016040528092919081815260200182805460018160011615610100020316600290048015610e865780601f10610e5b57610100808354040283529160200191610e86565b820191906000526020600020905b815481529060010190602001808311610e6957829003601f168201915b50505050508a6112d4565b8015610f3f5750610f3e816001018054600181600116156101000203166002900480601f016020809104026020016040519081016040528092919081815260200182805460018160011615610100020316600290048015610f335780601f10610f0857610100808354040283529160200191610f33565b820191906000526020600020905b815481529060010190602001808311610f1657829003601f168201915b5050505050896112d4565b5b8015610fed5750610fec816003018054600181600116156101000203166002900480601f016020809104026020016040519081016040528092919081815260200182805460018160011615610100020316600290048015610fe15780601f10610fb657610100808354040283529160200191610fe1565b820191906000526020600020905b815481529060010190602001808311610fc457829003601f168201915b5050505050886112d4565b5b801561109b575061109a816006018054600181600116156101000203166002900480601f01602080910402602001604051908101604052809291908181526020018280546001816001161561010002031660029004801561108f5780601f106110645761010080835404028352916020019161108f565b820191906000526020600020905b81548152906001019060200180831161107257829003601f168201915b5050505050876112d4565b5b80156111495750611148816007018054600181600116156101000203166002900480601f01602080910402602001604051908101604052809291908181526020018280546001816001161561010002031660029004801561113d5780601f106111125761010080835404028352916020019161113d565b820191906000526020600020905b81548152906001019060200180831161112057829003601f168201915b5050505050866112d4565b5b156111575760019350611169565b8280600101935050610d50565b600093505b50505095945050505050565b60018181548110151561118457fe5b906000526020600020016000915090508054600181600116156101000203166002900480601f0160208091040260200160405190810160405280929190818152602001828054600181600116156101000203166002900480156112285780601f106111fd57610100808354040283529160200191611228565b820191906000526020600020905b81548152906001019060200180831161120b57829003601f168201915b505050505081565b60006020835181151561123f57fe5b04905060006020845181151561125157fe5b0611156112615780806001019150505b60006001820191505b602081028401518584015260208503945060018101905081811061126a575050505050565b60006020825181151561129e57fe5b0490506000602083518115156112b057fe5b061415156112c15780806001019150505b8080600101915050602081029050919050565b6000816040518082805190602001908083835b60208310151561130c57805182526020820191506020810190506020830392506112e7565b6001836020036101000a038019825116818451168082178552505050505050905001915050604051809103902060001916836040518082805190602001908083835b602083101515611373578051825260208201915060208101905060208303925061134e565b6001836020036101000a03801982511681845116808217855250505050505090500191505060405180910390206000191614905092915050565b50805460018160011615610100020316600290046000825580601f106113d357506113f2565b601f0160209004906000526020600020908101906113f19190611475565b5b50565b828054600181600116156101000203166002900490600052602060002090601f016020900481019282601f1061143657805160ff1916838001178555611464565b82800160010185558215611464579182015b82811115611463578251825591602001919060010190611448565b5b5090506114719190611475565b5090565b61149791905b8082111561149357600081600090555060010161147b565b5090565b90565b600082601f83011215156114ad57600080fd5b81356114c06114bb82611bd5565b611ba8565b915080825260208301602083018583830111156114dc57600080fd5b6114e7838284611c59565b50505092915050565b600082601f830112151561150357600080fd5b813561151661151182611c01565b611ba8565b9150808252602083016020830185838301111561153257600080fd5b61153d838284611c59565b50505092915050565b6000610140828403121561155957600080fd5b611564610140611ba8565b9050600082013567ffffffffffffffff81111561158057600080fd5b61158c8482850161149a565b600083015250602082013567ffffffffffffffff8111156115ac57600080fd5b6115b88482850161149a565b602083015250604082013567ffffffffffffffff8111156115d857600080fd5b6115e48482850161149a565b604083015250606082013567ffffffffffffffff81111561160457600080fd5b6116108482850161149a565b606083015250608082013567ffffffffffffffff81111561163057600080fd5b61163c8482850161149a565b60808301525060a082013567ffffffffffffffff81111561165c57600080fd5b6116688482850161149a565b60a08301525060c082013567ffffffffffffffff81111561168857600080fd5b6116948482850161149a565b60c08301525060e082013567ffffffffffffffff8111156116b457600080fd5b6116c08482850161149a565b60e08301525061010082013567ffffffffffffffff8111156116e157600080fd5b6116ed8482850161149a565b6101008301525061012082013567ffffffffffffffff81111561170f57600080fd5b61171b8482850161149a565b6101208301525092915050565b60006117348235611c4f565b905092915050565b60006020828403121561174e57600080fd5b600082013567ffffffffffffffff81111561176857600080fd5b611774848285016114f0565b91505092915050565b600080600080600060a0868803121561179557600080fd5b600086013567ffffffffffffffff8111156117af57600080fd5b6117bb888289016114f0565b955050602086013567ffffffffffffffff8111156117d857600080fd5b6117e4888289016114f0565b945050604086013567ffffffffffffffff81111561180157600080fd5b61180d888289016114f0565b935050606086013567ffffffffffffffff81111561182a57600080fd5b611836888289016114f0565b925050608086013567ffffffffffffffff81111561185357600080fd5b61185f888289016114f0565b9150509295509295909350565b60008060008060008060008060008060006101608c8e03121561188e57600080fd5b60008c013567ffffffffffffffff8111156118a857600080fd5b6118b48e828f016114f0565b9b505060208c013567ffffffffffffffff8111156118d157600080fd5b6118dd8e828f016114f0565b9a505060408c013567ffffffffffffffff8111156118fa57600080fd5b6119068e828f016114f0565b99505060608c013567ffffffffffffffff81111561192357600080fd5b61192f8e828f016114f0565b98505060808c013567ffffffffffffffff81111561194c57600080fd5b6119588e828f016114f0565b97505060a08c013567ffffffffffffffff81111561197557600080fd5b6119818e828f016114f0565b96505060c08c013567ffffffffffffffff81111561199e57600080fd5b6119aa8e828f016114f0565b95505060e08c013567ffffffffffffffff8111156119c757600080fd5b6119d38e828f016114f0565b9450506101008c013567ffffffffffffffff8111156119f157600080fd5b6119fd8e828f016114f0565b9350506101208c013567ffffffffffffffff811115611a1b57600080fd5b611a278e828f016114f0565b9250506101408c013567ffffffffffffffff811115611a4557600080fd5b611a518e828f016114f0565b9150509295989b509295989b9093969950565b600060208284031215611a7657600080fd5b600082013567ffffffffffffffff811115611a9057600080fd5b611a9c84828501611546565b91505092915050565b600060208284031215611ab757600080fd5b6000611ac584828501611728565b91505092915050565b611ad781611c43565b82525050565b6000611ae882611c2d565b808452611afc816020860160208601611c68565b611b0581611c9b565b602085010191505092915050565b6000611b1e82611c38565b808452611b32816020860160208601611c68565b611b3b81611c9b565b602085010191505092915050565b6000602082019050611b5e6000830184611ace565b92915050565b60006020820190508181036000830152611b7e8184611add565b905092915050565b60006020820190508181036000830152611ba08184611b13565b905092915050565b6000604051905081810181811067ffffffffffffffff82111715611bcb57600080fd5b8060405250919050565b600067ffffffffffffffff821115611bec57600080fd5b601f19601f8301169050602081019050919050565b600067ffffffffffffffff821115611c1857600080fd5b601f19601f8301169050602081019050919050565b600081519050919050565b600081519050919050565b60008115159050919050565b6000819050919050565b82818337600083830152505050565b60005b83811015611c86578082015181840152602081019050611c6b565b83811115611c95576000848401525b50505050565b6000601f19601f83011690509190505600a265627a7a7230582066c02b9ac772ebd42be8024942ca5c21c3d8546f1e193eda0d9289d456cee1396c6578706572696d656e74616cf50037",
  "source": "pragma solidity ^0.4.24;\npragma experimental ABIEncoderV2;\nimport \"./oraclize/OraclizeAPI.sol\";\nimport \"./seriality/Seriality.sol\";\n\ncontract StandardRegistry is Seriality{\n\n    /*Struct for the standard access registry\n    Consider adding parents name*/ \n    struct Standard {\n        string given_name;\n        string family_name;\n        string telephone;\n        string birthday;\n        string add;\n        string add_complement;\n        string city;\n        string state;\n        string zipcode;\n        string mail;\n    }\n    \n    /*Map for regestries\n    the mapping type on solidity does not support iteration, does forcing us to create\n    a list of string to iterate over*/\n    mapping(string => Standard) regestries;\n    string[] public regestriesAccts;\n\n    /*Add a user to the contract.\n    This method should never be called first, since it changes the information\n    of the user.\n    Please use lookUp() before creating another user.*/\n    function createStandardregistry (\n        string _firebaseId, \n        string _given_name, \n        string _family_name, \n        string _telephone, \n        string _birthday, \n        string _add, \n        string _add_complement, \n        string _city, \n        string _state,  \n        string _zipcode, \n        string _mail) public {\n\n        Standard registry = regestries[_firebaseId];\n        \n        registry.given_name = _given_name;\n        registry.family_name = _family_name;\n        registry.telephone = _telephone;\n        registry.birthday = _birthday;\n        registry.add = _add;\n        registry.add_complement = _add_complement;\n        registry.city = _city;\n        registry.state = _state;\n        registry.zipcode = _zipcode;\n        registry.mail = _mail;\n\n        regestriesAccts.push(_firebaseId) - 1;\n    }\n    \n    /*Those parameters are the \"Composite Private Key\"\n    This contract does not have a strong key for lookup since it's only use is for\n    standard information for other contracts.*/\n    function lookUpregistry (\n        string _given_name, \n        string _family_name,\n        string _birthday,\n        string _city, \n        string _state ) public view returns (bool) {\n        \n        if(regestriesAccts.length == 0) return false;\n        for(uint i = 0; i < regestriesAccts.length; i ++) {\n            string id = regestriesAccts[i];\n            Standard registry = regestries[id];\n            if(compareStrings(registry.given_name, _given_name) &&\n            compareStrings(registry.family_name,_family_name) &&\n            compareStrings(registry.birthday, _birthday) &&\n            compareStrings(registry.city, _city) &&\n            compareStrings(registry.state, _state)){\n                return true;\n            }\n        }\n        return false;\n    }\n\n    /*Look up for an user with the Firebase ID.\n    This should be used for getting all pertinent information of a certain user. */\n    function lookUpId (string _firebaseId) public view returns (bytes serialized) {\n        return getBytes(regestries[_firebaseId]);\n    }\n\n    /*Delete a certain regestry with the Firebase ID.\n    This should be use carefully and only with an user Firebase should be deleted.*/\n    function deleteRegistry (string _firebaseId) public {\n        delete(regestries[_firebaseId]);\n    }\n\n    /*This method is used for updating already existing registries.\n    This should not be used for adding new regestries. */\n    function update(string _firebaseId) public {\n        //TODO create a deserializable function for a Standard Registry Structure\n    }\n\n    /*This method is only used for string comparsion. \n    Since == for string is not yet implemented we convert the parameters to \n    Ethereum-SHA-3 and compare it.*/\n    function compareStrings (string a, string b) private returns (bool) {\n        return keccak256(a) == keccak256(b);\n    }\n    \n    /*Since solidity still doesn't support tuple/list return on functions this method\n    is used to serialize a standard registry structure. This method should recieve a \n    Stanadrd structure and will return a hex number.*/\n    function getBytes(Standard registry) public view returns (bytes serialized){\n        uint offset = 64*(10);\n        bytes memory buffer = new  bytes(offset);\n        \n        stringToBytes(offset, bytes(registry.mail), buffer);\n        offset -= sizeOfString(registry.mail);\n        \n        stringToBytes(offset, bytes(registry.zipcode), buffer);\n        offset -= sizeOfString(registry.zipcode);\n        \n        stringToBytes(offset, bytes(registry.state), buffer);\n        offset -= sizeOfString(registry.state);\n        \n        stringToBytes(offset, bytes(registry.city), buffer);\n        offset -= sizeOfString(registry.city);\n        \n        stringToBytes(offset, bytes(registry.add_complement), buffer);\n        offset -= sizeOfString(registry.add_complement);\n        \n        stringToBytes(offset, bytes(registry.add), buffer);\n        offset -= sizeOfString(registry.add);\n        \n        stringToBytes(offset, bytes(registry.birthday), buffer);\n        offset -= sizeOfString(registry.birthday);\n        \n        stringToBytes(offset, bytes(registry.telephone), buffer);\n        offset -= sizeOfString(registry.telephone);\n        \n        stringToBytes(offset, bytes(registry.family_name), buffer);\n        offset -= sizeOfString(registry.family_name);\n        \n        stringToBytes(offset, bytes(registry.given_name), buffer);\n        offset -= sizeOfString(registry.given_name);\n        \n        return (buffer);\n    }\n\n}",
  "sourcePath": "/Users/nathangavenski/Documents/PUCRS/TCC/contracts/contracts/StandardRegistry.sol",
  "compiler": {
    "name": "solc",
    "version": "0.4.24+commit.e67f0147.Emscripten.clang"
  },
  "schemaVersion": "2.0.1",
  "updatedAt": "2018-08-09T22:04:41.754Z"
}