{
  "contractName": "StandardInterface",
  "abi": [
    {
      "constant": true,
      "inputs": [
        {
          "name": "_firebaseId",
          "type": "string"
        }
      ],
      "name": "lookUpId",
      "outputs": [
        {
          "name": "serialized",
          "type": "bytes"
        }
      ],
      "payable": false,
      "stateMutability": "view",
      "type": "function"
    }
  ],
  "bytecode": "0x608060405234801561001057600080fd5b50610197806100206000396000f3fe608060405234801561001057600080fd5b506004361061002b5760003560e01c8063494e5cc814610030575b600080fd5b6100e96004803603602081101561004657600080fd5b810190808035906020019064010000000081111561006357600080fd5b82018360208201111561007557600080fd5b8035906020019184600183028401116401000000008311171561009757600080fd5b91908080601f016020809104026020016040519081016040528093929190818152602001838380828437600081840152601f19601f820116905080830192505050505050509192919290505050610164565b6040518080602001828103825283818151815260200191508051906020019080838360005b8381101561012957808201518184015260208101905061010e565b50505050905090810190601f1680156101565780820380516001836020036101000a031916815260200191505b509250505060405180910390f35b606091905056fea165627a7a72305820cd08ec43f7e19bb8fe6b62acf71d0ae06b6b498fd69207b6298aceffde47c08b0029",
  "source": "pragma solidity ^0.5.0;\n\ncontract StandardInterface {\n    function lookUpId(string memory _firebaseId) public view returns(bytes memory serialized) {}\n}",
  "sourcePath": "C:/Users/00161615/Documents/project/scm-blockchain-backend-master/contracts/StandardInterface.sol",
  "compiler": {
    "name": "solc",
    "version": "0.5.8+commit.23d335f2.Emscripten.clang"
  },
  "schemaVersion": "3.0.11",
  "updatedAt": "2019-06-28T22:19:55.528Z",
  "devdoc": {
    "methods": {}
  },
  "userdoc": {
    "methods": {}
  }
}